:020000040800F2
:2000000020B30020ED010008B31600089B090008B1160008BD04000809370008000000009A
:20002000000000000000000000000000493000083906000800000000411700080931000856
:20004000070200080702000807020008070200080702000807020008070200080702000818
:200060000702000807020008070200080702000807020008070200080702000807020008F8
:200080000702000807020008070200080702000807020008070200080702000807020008D8
:2000A0000702000807020008070200080702000807020008070200080702000807020008B8
:2000C000070200080702000807020008070200080702000807020008070200080702000898
:2000E000070200080702000807020008070200080702000807020008070200080702000878
:2001000007020008E519000807020008070200080702000807020008070200080702000862
:200120000702000807020008070200080702000800F002F800F03AF80AA090E8000C82447B
:200140008344AAF10107DA4501D100F02FF8AFF2090EBAE80F0013F0010F18BFFB1A43F092
:2001600001031847446D0000646D0000103A24BF78C878C1FAD8520724BF30C830C144BFFA
:2001800004680C60704700000023002400250026103A28BF78C1FBD8520728BF30C148BFC9
:2001A0000B6070471FB51FBD10B510BD00F021F91146FFF7F7FF04F001FF00F03FF903B4BB
:2001C000FFF7F2FF03BC00F045F90000EFF30980704780F309887047EFF30880704780F3DA
:2001E0000888704740BA7047C0BA70470948804709480047FEE7FEE7FEE7FEE7FEE7FEE7C8
:20020000FEE7FEE7FEE7FEE704480549054A064B704700000D31000831010008209F0020FA
:2002200020B3002020A3002020A3002030B505460B462A4613F8014B12F8010B08B1A0420C
:20024000F8D01CB1002802D06D1CF1E7284630BD40EA0103024630B59B0710D14FF0013401
:2002600000E008C208C91D1B9D4315EAC41FF8D013F0FF0102F8011B0DD01B0AF8E711F83E
:20028000013B002B02F8013B05D011F8013B002B02F8013BF3D130BD421E12F8013F002BC0
:2002A000FBD111F8013B002B02F8013BF9D17047032A40F2308010F0030C00F0158011F89F
:2002C000013BBCF1020F624498BF11F801CB00F8013B38BF11F8013BA2F1040298BF00F8FA
:2002E00001CB38BF00F8013B11F0030300F02580083AC0F0088051F8043B083A51F804CB0F
:20030000A0E80810F5E7121D5CBF51F8043B40F8043BAFF30080D20724BF11F8013B11F8EC
:2003200001CB48BF11F8012B24BF00F8013B00F801CB48BF00F8012B704710B5203AC0F029
:200340000B80B1E81850203AA0E81850B1E81850A0E81850BFF4F5AF5FEA027C24BFB1E83C
:200360001850A0E8185044BF18C918C0BDE810405FEA827C24BF51F8043B40F8043B08BF84
:200380007047D20728BF31F8023B48BF11F8012B28BF20F8023B48BF00F8012B70474FF0E7
:2003A000000200B5134694469646203922BFA0E80C50A0E80C50B1F12001BFF4F7AF090749
:2003C00028BFA0E80C5048BF0CC05DF804EB890028BF40F8042B08BF704748BF20F8022B9A
:2003E00011F0804F18BF00F8012B7047704770477047754600F028F8AE460500694653464A
:2004000020F00700854618B020B5FFF7FDFEBDE820404FF000064FF000074FF000084FF056
:20042000000B21F00701AC46ACE8C009ACE8C009ACE8C009ACE8C0098D4670470446AFF3BC
:2004400000802046FFF7BBFE00487047C09E00207047000001491820ABBEFEE726000200DB
:2004600070B515460E46044602F03AFE012241F24E010D4802F0CEFB00F01CF94FF0E0203B
:20048000016921F0010101614FF00060844200D88000211A01F04AF93046FFF7A0FEAC4655
:2004A000BDE870406047000000000020002302E0C1545B1C9BB29342FAD37047FEE7000004
:2004C000002042F21071074A02E0536B1B0602D4491EFAD200E019B140F2FF519163704755
:2004E00003207047008001400D4A516B11F0450FFBD04B0703D50420906303207047C90743
:2005000002D00120906370471169814201D01020704740F2FF509063506900F0080070476D
:200520000080014010B5002042F210720D490BE04B6B13F0450F07D00AB15A0707D58A6B4D
:20054000032042F004020BE0521EF1D2F5E7DA0704D08A6B012042F001028A6340F2FF52D6
:200560008A6310BD008001400849486B10F0450FFBD0400705D5886B40F004008863032087
:20058000704740F2FF508863002070470080014030B50446174A0020536B13F0450FFBD010
:2005A0005D0705D5906B40F004009063032030BDDB0705D0906B40F001009063012030BDE7
:2005C0001369A34210D140F2FF539363526912F4604F03D0910405D5132030BD4FEA124200
:2005E0000A8030BD510401D5102030BD1104FCD50F2030BD0080014010B5002042F21072DE
:200600000C490BE04B6B13F0450F07D00AB15A0707D58A6B032042F0040208E0521EF1D253
:20062000F5E75A0604D58A6B002042F040028A6310BD000000800140704742F2107203E051
:200640000021491C9142FCD3401EF9D27047000070B505464FF43026304600F059F80428A6
:2006600011D1094C206940F0020020616561206940F040002061304600F04AF8216941F65E
:20068000FD721140216170BD0020024008490420CA68D20701D001207047CA68520701D5FF
:2006A00002207047C968C906FBD5032070470000002002400248016941F0800101617047D6
:2006C00000200240F0B506464FF400570D46384600F01EF804280CD1064C206940F0010041
:2006E00020613580384600F013F82169BA1E11402161F0BD00200240034802494160034984
:20070000416070472301674500200240AB89EFCD00B50346FFF7BAFF03E000BFFFF7B6FF65
:200720005B1E012803D0002B00D1052000BD002BF4D1FAE74FF0204202EB800000290168F5
:2007400002D041F0010101E0014A114001607047FEFF0F0030B5D0E901121143D0E903230F
:200760001A43114342690368114382691143C2691143026A1143426A1143826A1143C26A74
:200780001143026B11434FF0204242F823108168082906D1016802EB81010B6843F0400384
:2007A0000B60416BD1E9003443EA04138C688D89240244EA054423430C8A43EA04530C7D40
:2007C000896943EA04630B43016802EB81014B60C16AB1F5804F07D000686FF0704102EBE6
:2007E0008000C0F8041130BD816B0068D1E9003443EA04138C680D8A240244EA055423439B
:200800000C7D896943EA046302EB80000B43C0F8043130BD7CB500250C4606460095082281
:2008200001211020019501F0DFF81020FFF75CFE002828D132040121372001F0D5F83720A3
:20084000FFF752FE00281ED1012303220821264801F0E2F800220121332001F0C5F83320F8
:20086000FFF742FE214A00280DD16B4640F22A61566B0E4208D0516B090710D5906B40F09E
:200880000800906304207CBD566BB602F0D5D2F8806043F825606D1C022DE9D3EBE7516B56
:2008A000890705D5906B40F00200906302207CBD516B890605D5906B40F0200090630620CA
:2008C0007CBD516B890505D5906B40F40070906307207CBD40F2FF519163009909BA616036
:2008E000019909BA21607CBDFFFF0F0000800140F0B5CA78002502F00F03D20601D58A7853
:2009000013430A784FF00F0E12F0FF0F4FF001021CD004680F8802FA05F63740B74211D119
:200920004FEA850C0EFA0CF724EA070703FA0CF43C43CF78282F02D0482F02D002E0466108
:2009400000E006616D1C082DE4D304600C88FF2C1ED944685FF0000606F1080702FA07F5C2
:200960000F882F40AF420FD14FEA860C0EFA0CF7BC4303FA0CF73C43CF78282F00D1456137
:20098000CF78482F00D10561761C082EE4D34460F0BD4161704701617047FEE710B504462C
:2009A00014480121008902040D2001F01DF812494A6B12F0450FFBD0D00705D0886B40F0F7
:2009C00001008863012010BD500705D5886B40F004008863032010BD08690D2801D0102063
:2009E00010BD40F2FF5088634869C0F343202070002010BDCC0000200080014030B50024C4
:200A000005462146204604F01DFA00F0CBFD0D498888A0F51442883A02D14FF4163008E0A4
:200A2000A0F5AE42613A02D14FF4FF3001E04FF496308860044901E00D80641C8442FBD3B0
:200A400030BD0000BC0000200000026038B50121080200F04FFF012140F2F91000F062FF66
:200A60004CF23370ADF8000003208DF802001820154C8DF8030069462046FFF739FF4FF69D
:200A80008070ADF8000069461048FFF731FFE014ADF8000069462046FFF72AFF8020ADF882
:200AA000000069462046FFF723FF094C40212046FFF76FFF4FF4FA70FFF7BFFD4021204663
:200AC000FFF769FF38BD000000140140001801400010014000B59DB006210020CDE90F10A6
:200AE000CDE91110139002211490CDE91501CDE917011B901C901021CDE9020119901A9087
:200B00000090019004900590069009020790CDE908010A900B900C900FA80D9016A80E9013
:200B20006846FFF717FE01210020FFF703FE1DB000BD000010B5144604F084F900F032FD8A
:200B40000148048010BD0000000002602DE9F0438146A2EB0900401C1F4686B20C46DFF8D1
:200B60003080079D0FE02146484604F06BF900F019FD0020414602E00D80401C80B2B04249
:200B8000FAD3641CA4B2BC42EDD9BDE8F0830000000002602DE9F05F00F026FDFE4C402151
:200BA0002046FFF7F8FE9620FFF747FD40212046FFF7EFFE9620FFF740FD40212046FFF7A3
:200BC000EAFE0520FFF739FD0121002000F004FD0520FFF732FDF14C2088F14EB0800520E6
:200BE000FFF72BFD2088A51EB0804FF6FF71FF2801D3884209D1D320288020882088208855
:200C000001EA002220881043B08080B249F22032E44F49F2313348F6891E41F2055C49F257
:200C2000253A49F2413B49F2283990421DD0B0F5134F7DD0984218D0704516D0504514D019
:200C4000484512D0584510D060450ED0A0F51048B8F5916809D004202880208820882088F5
:200C600001EA002021880143B180B08848F25258904224D0B0F5134FDBD098421FD0704539
:200C80001DD050451BD0484519D0584517D0604515D0A0F51441883911D040450FD005204E
:200CA000FFF7CBFC00F04AFEA0F5AE41B080613905D00520FFF7C1FC00F040FEB08080B2B4
:200CC000504501D048457DD143F20801E32000F083FC1221E72000F07FFC41F23121EF20EA
:200CE00000F07AFC3878EE2802D04FF4807100E00021012000F070FC4FF4E061022000F0AE
:200D00006BFC41F21801032000F066FC0021042000F062FC40F20721082000F05DFC00212C
:200D2000092000F059FC00210A2000F055FC00E005E301210C2000F04FFC00210D2000F02A
:200D40004BFC00210F2000F047FC0A20FFF775FC0021102000F040FC0721112000F03CFC3A
:200D60000021122000F038FC0021132000F034FC0A20FFF762FC0A20FFF75FFC41F29021AB
:200D8000102000F029FC40F22721112000F024FC0A20FFF752FC0A20FFF74FFC1A2112200D
:200DA00000F01AFC0A20FFF748FC0A20FFF745FC4FF4C051132000F00FFC2821292000F064
:200DC0000BFC00E0ACE00C212B2000F005FC0A20FFF733FC0A20FFF730FC0021202000F04B
:200DE000FBFB0021212000F0F7FB0A20FFF725FC0A20FFF722FC0021302000F0EDFB40F2BF
:200E00000531312000F0E8FB0321322000F0E4FB4FF44171352000F0DFFB0F21362000F0A9
:200E2000DBFB40F20741372000F0D6FB4FF40171382000F0D1FB40F20771392000F0CCFBC7
:200E400040F203413C2000F0C7FB41F204613D2000F0C2FB0A20FFF7F0FB0A20FFF7EDFB59
:200E60000021502000F0B8FBEF21512000F0B4FB0021522000F0B0FB40F23F11532000F00B
:200E8000ABFB3878EE2802D04FF4274101E04FF41C51602000F0A0FB0121612000F09CFBA3
:200EA00000216A2000F098FB0021802000F094FB0021812000F090FB0021822000F08CFB4D
:200EC0000021832000F088FB0021842000F084FB0021852000F080FB1021902000F07CFB2E
:200EE0004FF4C061922000F077FBB188494510D10321932000F070FB4FF48871952000F0BF
:200F00006BFB0021972000F067FB0021982000F063FBBDE8F05F40F23311072000F05CBB82
:200F200058457DD1012028804CF250310846401E0004000CFBD10846401E0004000CFBD12E
:200F4000CF20288000202080DB20208030202080B12028800020208018202080ED202880E9
:200F600064202080032020801220208081202080E820288085202080002020807020208092
:200F8000CB202880392020802C2020800020208034202080022007E0001001400000026069
:200FA000BC000020000000202080F720288020202080EA202880002020802080C02028805C
:200FC00022202080C120288012202080C52028805C2020804C202080C72028808F20208041
:200FE000362028803878EE2801D0E82000E0282020803A20288055202080F2202880022099
:2010000020802620288001202080E02028800F20208020202080192020800F20208000E0A2
:2010200052E010202080082020804A202080F62020803A2020800F20208014202080092060
:201040002080182020800B20208008202080E1202080002020801E202080208005202080E1
:201060000F20208004202080312020803320208043202080042020800B20208006202080A1
:2010800027202080342020800F202080112028800846401E0004000CFBD1491E0904090CBC
:2010A000FBD1292028802A202880002020802080012020803F2020802B20288000202080AE
:2010C00020802080EF2031E140457DD1112028807820FFF7B2FA362028803878EE2801D034
:2010E000A42000E0642020803A20288005202080B22028800C202080208000202080332068
:2011000020802080B720288035202080BB20288029202080C02028802C202080C2202880B1
:2011200001202080C320288010202080C420288020202080C62028800F202080D020288032
:20114000A4202080A1202080E0202880D02020800020208002202080072020800A2020807F
:2011600028202080322020804420208042202080062020800E202080122020801420208055
:2011800017202080E1202880D02020800020208002202080072020800A2020802820208044
:2011A0003120208054202080472020800E2020801C202080172020801B2020801E202080E9
:2011C0002A202880002000E00FE020802080012020803F2020802B202880002020802080DB
:2011E0002080EF2020802920A2E0A0F5144188397ED1E020288000202080072020800F207D
:2012000020800D2020801B2020800A2020803C202080782020804A202080072020800E2089
:201220002080092020801B2020801E2020800F202080E1202880002020802220208024202E
:20124000208006202080122020800720208036202080472020802080062020800A20208062
:201260000720208030202080372020800F202080C0202880102020802080C120288041200F
:201280002080C5202880002020802220208080202080362028803878EE2801D0682000E042
:2012A000A82020803A20288055202080B020288000202080B1202880B020208011202080BD
:2012C000B420288002202080B62028800220208042202080B7202880C6202080E9202880D8
:2012E00000202080F7202880A9202080512000E021E020802C20208082202080112028800D
:201300007820FFF79AF9292028802A20288000202080208001202080DF2020802B20288016
:20132000002020802080012020803F2020802C202880BDE8F09FA0F5AE41613902D045F23E
:201340006170B0802B202880002020803220FFF774F9E2202880362020800220208054204E
:2013600020803220FFF769F9E0202880032020800720FFF762F9012028800C20FFF75DF9FF
:20138000E6202880012020801F202080FF2020803220FFF752F9B020288020202080002035
:2013A000208001202080DF202080012020800F202080002020800520FFF73FF9B42028800E
:2013C000022020801320208000202080082020802B202080002020800220208000202080C3
:2013E000B6202880012020802020208000202080042020800C2020800020208002202080FC
:201400000520FFF71AF9BA2028800F202080B8202880072020800120208036202880387897
:20142000EE2825D0002020803220FFF706F9BE20288006202080F020208001202080F020CD
:201440002080002020802080D02028800D202080F0202880032020800020FFF7CFFA292084
:2014600028802C202880BDE8F05F0020FFF7C6BA0320D8E72DE9FF4F81B080460C461D4654
:201480000091580700D0012000EBD5006908DFF8B890484300F0FF0BB9F80400A0F51441F7
:2014A000883903D0A0F5AE43613B04D14FF4F071C9F80C1003E04FF4A070C9F80C00203AC3
:2014C000D0B2002603903AE00C2D03D0102D01D0182D36D103984FF0000A00EBC0011B485E
:2014E00000EB8100875D380602D5B9F8002003E00E9828B9B9F8022021464046FFF71AFB81
:201500007806641CD9F80C10070EA4B2884518D20098201AA84209D108F10100D9F80C1041
:201520001FFA80F8009C88450BD206E00AF1010000F0FF0ABAF1080FD5D3761CF6B25E45B2
:20154000C2D305B0BDE8F08FBC000020B05B00082DE9F84F044600F0FF0910190D46DDE94D
:201560000AB687B258191FFA80F84FF0000A12E0BC4203D305EB0B004C4685B245450FD232
:201580005B4629462046CDF800A0FFF773FF04EB5B0084B2761C3278A2F120005E28E7D953
:2015A000BDE8F88F0A480B498088A0F51342253A09D0D21E07D0A0F50942893A03D0A0F55D
:2015C000A852053A01D1222000E02C2008807047BC000020FEFF0160024A1080901C018010
:2015E00070470000FEFF016010B5FFF72FFABDE81040FFF76FBA00002DE9F84301211C202F
:2016000000F090F90420ADF800001024254E8DF8034003258DF8025069463046FFF768F99E
:2016200004213046FFF7B5F92020ADF80000DFF878808DF803408DF8025069464046FFF7ED
:2016400057F920214046FFF7A4F90121202000F069F96602ADF80060144F8DF803408DF80F
:20166000025069463846FFF743F931463846FFF790F94020ADF800008DF803408DF80250A1
:2016800069464046FFF734F940214046FFF781F94FF4FA7003F0D3FB40214046FFF77BF9DC
:2016A000BDE8F883000C01400010014000140140FEE77047F0B50F21C478027801234FF08D
:2016C000E026DCB1124C2468457804F4E064C4F5E064240AC4F10407E1408478BD400C4043
:2016E0002C4321010B4C1155007800F01F018B40400906EB8000C0F80031F0BD02F01F00E8
:201700008340500906EB8000C0F88031F0BD00000CED00E000E400E0024908430249086040
:20172000704700000000FA050CED00E0024A1140014302480160704780FFFF1F08ED00E065
:2017400070470000F8B516000F4615D0194CB2B23846616801F5104101F05CFA00250EE024
:20176000411901F510410122684601F025FA785D9DF80010884201D00020F8BD6D1C6068AC
:20178000B542EDD30C49304460600988A1F51442883A03D0A1F5AE42613A02D14FF4962109
:2017A00001E04FF416312161884201D3002060600120F8BDD8000020C000002070B51400D7
:2017C00008460FD01049114D0988A1F51442883A03D0A1F5AE42613A06D1A968A2B201F5C0
:2017E000702105E0002070BDA968A2B201F5BB0101F010FAA8682044A860B0F5163F01D3CA
:201800000020A860012070BDC0000020D80000202DE9FE4F002692460F4680464FF4004972
:201820008DF800603546344601224946684601F0C3F99DF80000FF2801D18DF800602B48DB
:201840000088A0F51441883903D0A0F5AE41613905D19DF80000264901EBC03105E09DF833
:2018600000004FF43C3101EB8031BAB2504601F0D1F900260BE0012204F5405101A801F006
:201880009BF99DF80400641C0028F4D1761C9DF800008642EFD3002001E0401C6D1C18F807
:2018A00000100029F9D16D1C04F54051AAB2404601F0B0F99DF800004FF4E04101EB800130
:2018C000042202A8029701F0A5F99DF800004C46401C8DF80000484601F090FA0122214675
:2018E000684601F097F90120BDE8FE8FC000002000781400044A0029516901D0014300E0D4
:20190000814351617047000000100240044A0029D16901D0014300E08143D16170470000F5
:2019200000100240044A0029916901D0014300E0814391617047000000100240094910B519
:20194000A12008808B1C18880820FEF776FE18884FF6FF7101EA00240820FEF76EFE1888D9
:20196000204310BDFEFF01603CB5002100910C46019100B1022413484069800101D50E20F2
:201980003CBD114D6946288980B2FEF743FF0028F6D10198400313D5288901210204372044
:2019A00000F022F83720FEF79FFD0028E8D122460121062000F018F80620FEF795FD3CBDFE
:2019C00025203CBD00800140CC00002004494A6822F0FF024A604A6802434A607047000008
:2019E0000080014000F0CEBB0A4B9A60DA686FF30A02DA60DA6800F03F000243DA60D86844
:201A000040EA8110D860D868D860D86840F48060D86070470080014010B50D4C606221F066
:201A20007E40A062E06A20F0F700E062E06A40EA0210E062E06AE062E06A03F0010140EA96
:201A40004100E062E06A40F00100E06210BD00000080014030B51A4B1C6844F470441C6082
:201A6000174B40331C6824F001041C601C6847F6F075AC431C601C6844EA02121A601A6825
:201A80001A601A681A601A6842F080021A601A6842F400721A601A6842F400621A601A6866
:201AA00042F400521A6089081A1D1160121D05491160111D0860186840F00100186030BD51
:201AC000040402408080014030B51649024600200978154C95B203290BD0052909D0072968
:201AE00007D019B1012901D0022917D1022A16D205E0022A13D20D49497804290ED3D0B286
:201B0000FFF732FF002809D1616821F4C0516160616841EAC52161606168616030BD272093
:201B200030BD0000CC00002000800140509A00202DE9F04F86B0B74A00210291117880F8C0
:201B40005610B54C1289A0F854202268130E9D090570C3F38305457003F003038370130CB3
:201B6000C370130A037142716468220E1301C4F3074243EA1213C38002F00F020272C4F31B
:201B80000722D3094372C2F380138372C2F34013C372C2F30013037300234373C4F3072319
:201BA0009B071B0DE5B243EA85059B4B9B6803931F0E07F007030193039B45EA9719C3F399
:201BC0000746C6F382030093B3074FEA537C039BC7F3C20EC3F307254CEAD51809F10103FA
:201BE000059308F102034FF0010C0CFA03FA4FEAEA730493C4F3074303F00F0C4FEA561B1A
:201C0000012303FA0CF3B9B1012915D0022904D0032911D007292FD043E0A206920A42EA5D
:201C20000723334303615B1C5C0BDB04C0E912342A464FF4007333E0C0F8109080F814E0F7
:201C4000019A427580F816B0009AC27580F81880DDE904C62A46A6FB0A58002404FB0A875C
:201C600006FB0C76A5FB037C036506FB03C305FB0433C0E9127314E0C0F8109080F814E076
:201C8000019A427580F816B0009A634BC27520332A4680F81880D3E91245C0E912451B6DC7
:201CA0000365C2F38013920600F8193F540E039A594BD2B244EAD214447002F07F02827038
:201CC000DB681A0ED409C470C2F341140471C2F3820444719207140FC3F3074244EA92148A
:201CE0008471C2F34014C4710024047202F001024272C3F30722D4098472C2F38014C4723D
:201D0000C2F340140473C2F300144473C2F38104847302F00302C273C3F346023E4B027469
:201D20000122103342741A68140EC474C2F307442602C2F307242643A0F8156014065A6851
:201D4000150E44EA0544C2F3074544EA0525C2F307242543C0F8175000F81B2F9F68C7F326
:201D6000074B3C0E4FEA0B6CC7F3072A44704CEA0A4CFAB24CEA0222D3F80CC04FEA1C6991
:201D800042EA090200924260037ACCF3074243EA121303729E4613074FEA1358CCF3072301
:201DA00048EA0308A0F80A80CCF3460C80F80CC04FF0010C80F80DC0343841B1012906D080
:201DC000022904D003290DD007290BD01EE0C6850563009981634EEA121180F83C10A0F80B
:201DE0003E8013E0C685056380F834404FEA0A61FCB241EA044444EA092180F835B01143C5
:201E000081631907090E41EA1311C187029806B0BDE8F08FCC000020309A00202E4808B593
:201E2000816941F010018161816941F020018161416941F480614161416941F00201416194
:201E4000264841686FF3130141604168244A114341602448016821F470610160016841F48E
:201E60003061016020480021016041608160C16041628162C1621D4A8263C16331208DF8F4
:201E8000000001208DF801008DF802008DF803006846FFF70FFC00F08BF888B900F02CF815
:201EA00070B91348FFF744FE50B91148B0F85400000400F0B9FB18B90120FFF705FE18B1AC
:201EC0000C490978032905D10720FFF77FFD012000F0B6FB08BD0000001002400010014067
:201EE000BBBB0B000014014000800140FF07C000509A0020CC00002038B52A4C0120ADF866
:201F000000002068800724D0274D2878042846D0002203210220FFF767FDFEF703FB00288B
:201F200018D1616921480160A1694160E1698160216AC160287870B101280CD006280AD0D4
:201F4000022808D0032806D0052804D0072802D00CE0252038BD002201210320FFF744FDB8
:201F600069460320FEF714FB0028F3D12878042815D0BDF80000A860020403210920FFF7E8
:201F800033FDFEF7CFFA0028E4D16169074810380160A1694160E1698160216AC160002012
:201FA00038BD000000800140CC000020409A00202DE9F04F0025DFF8B8912C462E46AB4614
:201FC0004B46C9F80450D9F80400C9F80400D9F80400C9F80400D9F80400C9F80400D9F8BC
:201FE0000400C9F80400D9F80400C9F804006620FFF7ECFC03201860586840F480705860E3
:20200000002041F28831401C88468842FBD30027002211461046FFF7E7FCFEF751FA20B112
:202020007F1C4A2FF4D3BDE8F08F4FF4D57201210820FFF7D9FCFEF7DFFA4E4F002855D04A
:20204000002211461046FFF7CFFCFEF739FA0028E9D1002201213720FFF7C6FC3720FEF747
:2020600043FA4FF6FF7A00285ED000214FF0F0320846FFF7B9FCFEF723FA0028D3D1002294
:2020800011461046FFF7B0FCFEF71AFA0028CAD1DFF8E4B05646B44211D201215A46084635
:2020A000FFF7A2FCFEF760FA0028BCD1D9F814504146EA0F641C491EFDD1002AEBD0B44243
:2020C0004DD3DFF8B8A00024012152460846FFF78BFCFEF749FA0028A5D1D9F81450414676
:2020E000EA0F641C491EFDD192B334E0012038708607AEE7002201213720FFF775FC372095
:20210000FEF7F2F900288ED14A4601212920FFF76BFCFEF729FA002885D115494D6904F161
:202120000104E90F04D005E0154AD04646EA02094445DFD3444510D215F0804F01D00221CB
:2021400012E0B6F1804F3FF46EAF87F800B06AE7FFE7B442B8D3B44201D31B2063E7C5F3D9
:202160004171022902D0032139705CE70721FBE700800140CC0000200080FFC00080FF80AB
:202180000000109170B5314C606B314DC0054CF23A3618D5A87801280CD00020E870A06BAB
:2021A00040F48070A063E06BB043E06301202871E87870BD002201210C20FFF715FC0C208D
:2021C000FEF792F9EAE7606B800709D5A06B40F00200A063E06BB043E0630220E87070BD16
:2021E000606B000709D5A06B40F00800A063E06BB043E0630420E87070BD606B800609D590
:20220000A06B40F02000A063E06BB043E0630620E87070BD606BC00609D5A06B40F010007A
:20222000A063E06BB043E0630520E87070BD606B800509D5A06B40F40070A063E06BB04352
:20224000E0630720E87070BD002070BD00800140CC0000202DE9F04F1746099E050022D045
:202260005A4C4FF00009C4F82C90DFF8648198F80000022803D10602570A47EAC3570023D7
:20228000DFF850A11A4619465046FFF7C5FB6069800102D50E20BDE8F08F701EB0F5006F56
:2022A00001D2064201D02620F5E7304601F0AAFC8346324601211020FFF796FB1020FEF7C4
:2022C00013F90028E7D101235A4631465046FFF7A3FB3A4601211120FFF786FB1120FEF73D
:2022E00003F90700D7D198F80110404681B1012940D064E000040DD55FF00000D4F88020BB
:2023000045F82020401C0828F8D305F1200501E040F22A61606B0842606BEBD0000704D5B5
:20232000A06B40F00800A0634DE0606B800705D5A06B40F00200A0630220ACE7606B8006B8
:2023400005D5A06B40F02000A0630620A3E7606B800508D5A06B40F40070A06307209AE70E
:20236000D4F8800001C5606B8002F9D440F2FF50A06324E080F8039080F8029080F8049088
:20238000E06B40F22A310843E063E06A40F00800E062002231462846FFF75CFB0E490F4A0F
:2023A000404601E0A1F1010113689B0403D403790BB9C3782BB131B1C17801B1C778384650
:2023C00069E70029EED1042065E7000000800140CC000020FFFF0F00FFFF01000004024056
:2023E0002DE9FC4700254FEAD15A074683074FEA412116464FF40070894616D000248046DB
:2024000010E04A4653461348CDF80080FFF722FF054642460F493846FDF74AFF641C07F58A
:202420000077E4B2B442ECD309E0012E0AD0CDE900060A465346384600F00EF80546284616
:20244000BDE8FC8700900A4653463846FFF702FFF4E70000A89A00202DE9F84F6D4EDDE94B
:202460000A484FF0000B17460546C6F82CB0DFF8A8A19AF80000022803D10402570A47EA36
:20248000C35700231A4619466448FFF7C5FA7069B146800102D50E20BDE8F88F601EB0F53A
:2024A000006F18D2044216D1204601F0ABFB0090224601211020FFF797FA1020FEF714F897
:2024C0000600E9D14046B8F1010F1ED900FB04F8B8F1007F01D32620DEE7012341464F48C6
:2024E000009AFFF799FA3A4601211220FFF77CFA1220FDF7F9FF0600CED19AF80100544689
:2025000040F22A3180B1012854D080E000040CD55FF00000D7F8802045F82020401C0828A4
:20252000F8D305F1200500E04F46786B0842786BECD0000704D5B86B40F00800B8635CE0E2
:20254000786B800705D5B86B40F00200B8630220A2E7786B800605D5B86B40F02000B8634B
:20256000062099E7786B800509D5B86B40F40070B863072090E700BFD7F8800001C5786B38
:202580008002F9D4786BC00510D59AF8000018B1012801D0022809D1002201210C20FFF7A0
:2025A00023FA0C20FDF7A0FF060095D140F2FF50B8632CE084F803B00122A27084F804B097
:2025C000D9F83C200A43C9F83C20D9F82C1041F00801C9F82C10002241462846FFF73AFADF
:2025E0000F48104902E000BFA0F101000A68920402D40028F8D100E008B904204CE7207998
:2026000010B9E0780028FAD0E07800B1E678304642E7000000800140CC000020FFFF0F00E7
:20262000FFFF01000004024000B5024601210720FFF7DAF907205DF804EBFDF755BF0000D3
:202640000021012803D010B1262108467047014A5070FAE7CC0000202DE9FC5F05004FF0C3
:2026600000000C9C90469B468DF800000646A2461BD0DFF80C924F46C9F82C0003460246CF
:2026800001468048FFF7C8F97869800102D50E20BDE8FC9F7C4F3878022808D0601EB0F52D
:2026A000006F02D2601E044208D02620F0E74FEA58204FF4007440EACB58F3E7204601F038
:2026C000A1FA0190224601211020FFF78DF91020FDF70AFF0028DBD13889BB4602040121AD
:2026E0000D20FFF781F90D20FDF7FEFE0028CFD1D9F81400634F0EE0BBF808007F1E020475
:2027000001210D20FFF770F90D20FDF7EDFE0028BED1D9F81400C00502D4002FECD11BE0E1
:20272000D7B1424601211820FFF75EF91820FDF7DBFE0028ACD180468BF802805F4643463F
:2027400021465048019AFFF767F9787840F2FF5B30B3012850D085E0292099E7400422D578
:20276000AAEB060020280ED282074FEA900200D0521C002004E010CDC1F88040401C361DFB
:20278000904210D2F7E7002055F82020C1F88020401C0828F8D305F1200506F1200602E030
:2027A00040F21A634946486B1842486BD6D0000704D5886B40F00800886351E0486B800714
:2027C00005D5886B40F002008863022060E7486BC00605D5886B40F010008863052057E7D2
:2027E000486B800505D5886B40F40070886307204EE7C1F838B035E087F8038087F8028030
:2028000087F80480D9F83C004E4640F21A310843C9F83C00012221462846FFF71BF9F06AF3
:2028200040F00800F0621949194A084602E000BFA0F1010013689B0402D40028F8D100E007
:2028400018B9FFF7EBFA0BE0491E387908B9F87820B129B1F87828B1F87819E70029F3D147
:20286000042015E7C9F838B06846FEF797F80028ACD19DF800100729F6D00629F4D007E73C
:2028800000800140FFFF0F00CC000020FFFF0100000402402DE9FC4706464FEAD159002011
:2028A0004FEA41211746B3074FF40074884614D000250EE0224631461048FDF7F9FC424642
:2028C0004B460E480094FFF7C7FE6D1C06F50076EDB2BD42EED3BDE8FC87012F07D0CDE984
:2028E00000470A464B46304600F00AF8F3E70A464B4630460094FFF7AFFEECE7A89A0020AB
:202900002DE9FF5F84B04FF00001DDE91256904604008DF808100F4606FB05FA3CD0DFF8F2
:2029200028928B46C9F82C1000231A4619468748FFF772F8D9F81400800103D50E2008B0DA
:20294000BDE8F09F82480078022807D0681EB0F5006F21D2681E054208D01DE007994FEAF8
:2029600058204FF4007540EAC158F3E7284601F049F901902A4601211020FFF735F81020C3
:20298000FDF7B2FD0028DAD1012E39D906FB05F00090B0F1007F01D32620D0E76C4D2878B0
:2029A00018B1012801D0022814D12889012102043720FFF719F83720FDF796FD0028BED179
:2029C000324601211720FFF70FF81720FDF78CFD0028B4D1424601211920FFF705F81920B9
:2029E000FDF782FD0028AAD1DDE9001200235748FFF712F8687840F21A3128B3012861D095
:202A000092E0400421D5AAEB070020280ED282074FEA900200D0521C002004E008CCC6F81E
:202A20008030401C3F1D90420FD2F7E75FF0000054F82020C6F88020401C0828F8D304F118
:202A4000200407F1200700E04E46706B0842706BD7D0000704D5B06B40F00800B06361E091
:202A6000706B800705D5B06B40F00200B063022065E7706BC00605D5B06B40F01000B06363
:202A800005205CE7706B800505D5B06B40F40070B063072053E7706BC0050FD5287818B174
:202AA000012801D0022809D1002201210C20FEF79BFF0C20FDF718FD0028D9D140F2FF5091
:202AC000B06331E085F803B00122AA7085F804B0D9F83C004E460843C9F83C00204600994C
:202AE000FEF7B8FFF06A40F00800F06219491A4A084601E0A0F1010013689B0402D40028A7
:202B0000F8D100E018B9FFF789F90BE0491E287908B9E87820B129B1E87828B1E8780EE776
:202B20000029F3D104200AE740F2FF50C9F8380002A8FDF733FF00289AD19DF808100729D9
:202B4000F6D00629F4D0FAE600800140FFFF0F00CC000020FFFF010000040240002901882B
:202B600002D041F0400101E021F040010180704770B5044600F098F90E4E4FF480552946D3
:202B80003046FDF706FFD82000F05CF9C4F3074000F058F9C4F3072000F054F9E0B200F0AD
:202BA00051F929463046FDF7F6FEBDE8704000F063B90000000C01402DE9F041DFF8508062
:202BC0000D4606464FF48057144639464046FDF7E0FE032000F036F9C5F3074000F032F9AF
:202BE000C5F3072000F02EF9E8B200F02BF904E0A52000F027F906F8010B2000A4F10104B4
:202C0000A4B2F5D139464046BDE8F041FDF7C3BE000C01402DE9F04707460E4611F0FF000D
:202C2000C0F10001CDB24FEA122402F0FF094FF4807A13D0F0B24042C0B206EB00081CB37C
:202C4000501B80B2040A00F0FF092A463146384600F0A0F83D44464657462CE07CB1554666
:202C60002000A4F10104E4B20CD02A463146384600F090F806F5807607F58077F0E7314619
:202C8000384623E04A46FAE7A945F8D9A9EB0500C4B22A463146384600F07CF84146781993
:202CA000224613E03A463146284600F073F806F5807605F580752000A4F10104E4B2F1D107
:202CC0005FEA090006D0024631462846BDE8F04700F060B8BDE8F08730B501218C0387B0D2
:202CE0002046FEF713FE01214FF48470FEF71AFE4FF42040ADF8140003208DF816001820B0
:202D0000224D8DF8170005A92846FDF7F1FDADF8144048208DF8170005A92846FDF7E8FDB8
:202D2000A410ADF8144010208DF8170005A92846FDF7DEFD21462846FDF72DFE0020ADF876
:202D400000004FF48271ADF80210ADF804000221ADF806100121ADF808104902ADF80A1016
:202D60000821ADF80C10ADF80E000720084CADF810006946204600F0CAF801212046FFF741
:202D8000EDFE00F0A5F807B030BD0000000C0140003800402DE9F04114460D46064600F022
:202DA00083F8DFF854804FF4805739464046FDF7F0FD022000F046F8C5F3074000F042F874
:202DC000C5F3072000F03EF8E8B200F03BF83811844204D9FF24307800F034F8761C2000AC
:202DE000A4F10104A4B2F6D139464046FDF7D3FDBDE8F04100F040B8000C014070B50446D9
:202E000000F052F80E4E4FF4805529463046FDF7C0FD202000F016F8C4F3074000F012F838
:202E2000C4F3072000F00EF8E0B200F00BF829463046FDF7B0FDBDE8704000F01DB8000099
:202E4000000C014070B50B4C05460221204600F053F80028F9D02946204600F056F8012174
:202E6000204600F049F80028F9D0204600F04BF8C0B270BD0038004070B50A4D4FF4805487
:202E800021462846FDF785FD0520FFF7DBFFA520FFF7D8FFC007FAD121462846BDE87040A4
:202EA000FDF779BD000C014070B5084D4FF4805421462846FDF76DFD0620FFF7C3FF214692
:202EC0002846BDE87040FDF766BD0000000C014070B5084D4FF4805421462846FDF759FD1B
:202EE000AB20FFF7AFFF21462846BDE87040FDF752BD0000000C01400246002012890A429A
:202F000000D001207047808970478181704730B502884C8802F441530A88CD8822438C8863
:202F20002C4322430C8922434C8922438C892243CC8922431A430280828B22F400628283EC
:202F4000098A018230BD000010B5002306E000BF30F8024B21F813405B1C9BB29342F7D39D
:202F600010BD00002DE9F84FA0F10064154689468246B4F5002F4FD2FDF7BEFBE70AC4F3F2
:202F80004906C6F58064A54200D82C46DFF88C804FF4806B4FF0006000EBC7205A461F4988
:202FA0000090FFF7D1FF00204FF6FF7106E0331838F813208A4203D1401C80B2A042F6D379
:202FC000A04221D20098FDF743FB0020424606E039F810108319401C22F8131080B2A0422A
:202FE000F6D35A460D49009800F01AF8A5420FD0281B09EB4409A2447F1C002685B25C46AE
:20300000A542C7D82C46C5E7224649465046EBE7BDE8F84FFDF74EBBBDE8F88F5C09002013
:203020002DE9F04116460F460546002408E000BF37F814102846FDF745FBAD1C641CA4B2EE
:20304000B442F5D3BDE8F0817047000022480021026842F4803202604FF4A063026801F104
:20306000010112F4003F01D19942F7D10168890330D51A490A6842F010020A600A6822F093
:2030800003020A600A6842F002020A604168416041684160416841F480614160416821F4FD
:2030A0007C114160416841F4E8114160016841F08071016001688901FCD5416821F00301FC
:2030C0004160416841F0020141604168C1F381010229FAD170470000001002400020024091
:2030E00010B500F0BBF900F039F805480078012805D104480088BDE81040FDF77FBC10BDBD
:2031000094000020BE000020704700000F4810B5016841F00101016041680D4A114041605B
:2031200001680C4A11400160016821F480210160416821F4FE0141604FF41F018160FFF706
:2031400085FF05494FF00060086010BD001002400000FFF8FFFFF6FE08ED00E02DE9F04F64
:203160008BB00026079608961422A54902A80996FDF7E3F8A349A44C01F5007B0BF120000E
:20318000CBF818104FF48071CBF81C10E16801F0B9FA00286FD1207920B904219B48FDF75E
:2031A000FAFB2671FFF798FD02F086F9DFF860924FF4806749F2884A4FF01808954901F158
:2031C000200001F077FB9449002808707ED19BF809005D46002879D02E28EFD0A869017851
:2031E00001B108B98B4809308CA1E061FDF71EF810B9287AC006E1D58AA1E069FDF716F87B
:2032000010B10120607000E06670824844300670E168FDF71DF87F4884A14430FDF73CF8B8
:203220007C48E1694430FDF737F87A49012244317F4801F09FF90028C0D17E480088FDF743
:20324000DDFBB9F80000504503D0A0F5AE41613912D1E0694546CDE900801823C8226421C8
:20326000BE20FEF775F974A0CDE900501823C8228221B42011E0C0E0E0695A21CDE90080CC
:2032800045461823C8220846FEF762F96AA0CDE900501823C82278215A20FEF759F9607879
:2032A00001282CD0674D2662206A574B054420333A4665495E4801F057FA208C294682B280
:2032C0006148FFF7A7FC6078012800E086E05848C0681DD002F082FB00905A484042284421
:2032E00002F07CFB009902F097FA584902F08AFB02F054FB80B2632810D963201EE04C4835
:2033000004224FF4C0010C30FFF784FC504DCAE702F064FB00904E484042E0E70A280DD2B2
:203320000A21B0FBF1F201FB120030308DF8080025208DF809008DF80A6010E00A23B0FB4F
:20334000F3F203FB120002F130018DF8081030308DF8090025208DF80A008DF80B60B9F854
:203360000000504503D0A0F5AE41613907D102A8CDE90080C8221823A021104606E002A843
:20338000CDE900801823C82296218C20FEF7E0F8206AB84288D2B9F80000504503D0A0F516
:2033A000AE41613907D12BA1CDE90081C8221823A021104606E027A1CDE900811823C82263
:2033C00096218C20FEF7C4F84FF47A7000F086FD174801F08FF801202070EFE60D4807A9D7
:2033E000203001F08FF930B9A06801F063FBD4E9021001F08BFA012020700BB0BDE8F08FEF
:203400009C5B00085C11002094000020000C0140C00000205C130020070000202E62696E22
:2034200000000000554E4947424B00002F00000004940020BE0000205570646174696E67CB
:203440002E2E2E0000D062002C9600200000C8420010600031303025000000002DE9F04F49
:2034600085B000279249029701F5807803970497C8F818108F4C4FF48071C8F81C1008F17D
:203480002000216901F03EF900287DD1207920B904218948FDF77FFA2771FFF71DFC02F076
:2034A00099F8DFF818924FF0010A4FF0180B4FF48065834901F1200001F0FCF989F80000E1
:2034C00000287DD198F809004646002878D02E28EFD0B16908782E28EBD038B131B1E16114
:2034E00078A1E069FCF7A2FE38B903E074480930E061F5E7307AC006DBD574A1E069FCF780
:2035000095FE10B184F802A00FE072A1E069FCF78DFE08B1022005E071A1E069FCF786FEDE
:2035200010B10320A07000E0A7706548443007702169FCF78DFE62486CA14430FCF7ACFE38
:203540005F48E1694430FCF7A7FE5D4901224431674801F00FF80028ABD166480088FDF7BB
:203560004DFA65480088A0F51441883903D0A0F5AE41613913D1E0691823CDE900B0C8227B
:2035800064215E46AA2000E08FE0FDF7E1FF5BA0CDE900601823C8228221B42012E0E0692D
:2035A0005A21CDE900B05E461823C8220846FDF7CFFF52A0CDE900601823C822782100E0AB
:2035C00064E05A20FDF7C4FFA078012826D0022837D0032848D046484FF40042FF21C06870
:2035E00060623748A830FCF761FF354EA836314B2A46203331463E4801F0B6F86071206AC8
:2036000006F58066A842F2D22D4A616AA832E069FEF7FEF8364800F06DFF4AE7254B2849DF
:2036200020332A46A831324801F09EF860712449D4E90702A831FEF785F8206AA842EDD26B
:20364000E8E71C4B1E4920332A46A831284801F08BF860711A49D4E90702A831FEF7AEF8DF
:20366000206AA842EDD2D5E7124B154920332A46A8311F4801F078F860711148216AA830AF
:2036800000F014FC206AA842EED2C3E70C4802A9203001F037F830B9606901F00BFAD4E978
:2036A000040101F033F984F800A005B0BDE8F08F5C12002094000020000C0140070000203D
:2036C0005C1300202E62696E000000005F6C6F676F0000005F7469746C656C6F676F0000B2
:2036E0005F70726576696577000000002F00000004940020BE000020C0000020557064613A
:2037000074696E672E2E2E00FEE7000010B504460A464078012304F1340100F0C6FE08B1B6
:20372000032010BDB4F83202A0F52A41553901D0022010BD94F86A00B4F86B1040EA012102
:203740000848B0EB012F08D094F88610B4F8872041EA0221B0EB012F01D1002010BD012008
:2037600010BD0000004641542DE9FC474A49002000F0E4FE14214948FCF711FE4748142137
:203780001430FCF70CFE464D49F2884845F261772888404505D143A14048FCF759FD46A194
:2037A0000CE0B84205D149A13C48FCF751FD4CA104E050A13948FCF74BFD52A1374814306A
:2037C000FCF746FD03223549524800F0D3FE334CDFF84491543C38B1D9F80010A160D9F85E
:2037E00004204846E26051E004214C48FDF7D3F84B49012008704748C068E0610020FDF7F3
:20380000FDF8264E288818252836404501D0B8420DD144A0CDE900501823C82264218C2086
:20382000FDF796FEC8221823A02110460CE03DA0CDE9005050211823C8220846FDF788FE97
:203840001823C8228C210846CDE90056FDF780FE01F034FC2F4800F04DFE10490122143136
:203860002C4800F087FE30B92A4800F043FE0B48143001F01FF909490848143101F046F81D
:203880002C4800F02BFBD4E90212484602B0BDE8F047FCF7E5BD0000000100205800002083
:2038A000C0000020526F62696E5F6E616E6F33352E62696E00000000524F42494E5F4E41EC
:2038C0004E4F33352E43555200000000526F62696E5F6E616E6F34332E62696E00000000F8
:2038E000524F42494E5F4E414E4F34332E43555200000000526F62696E5F6E616E6F2E62AF
:20390000696E0000524F42494E5F4E414E4F2E43555200003403002000700008000C014097
:2039200098000020544654205570646174696E6700000000FFFF4F0000E0401C02780AB1C7
:203940008A42FAD1D0B27047F0B50022164B144602EB420653F826506DB10768BD420BD1B7
:2039600003EB860586686F68B74205D12D89C688B54204D000E0641C521C022AE8D3022A8A
:2039800001D079B904E05CB9022909D01220F0BD02EB420003EB80004089B0F5807F01D06D
:2039A0000020F0BD1020F0BDA89C00202DE9F04716460A4601680D78303D092D02D84B78D2
:2039C0003A2B07D0002500271760022D05D30B20BDE8F087891C0160F5E7784850F825404B
:2039E0008CB11460207820B1607800F06DFDC1070BD02770E8B2B946607000F03DFDC107E6
:203A000008D00320E4E70C20E2E70EB1400704D40020DDE71EB1400701D50A20D8E7002133
:203A20000D462046FFF772FE01280CD104F5F9700179E1B3017AD0F8090041EA00252946E6
:203A40002046FFF763FE032801D080BB01E00120BEE7B4F83F00B0F5007F5AD1B4F84A009B
:203A600028B994F85800D4F8591040EA0120E06194F844108446E170012901D0022948D186
:203A8000484394F84110A17089B14B1E194240D1B4F84520228113073BD1B4F847602EB98A
:203AA00094F85430D4F8556043EA062600E030E0B4F842306BB31F1807EB1217BE4228D3A3
:203AC000F61BB6FBF1F121B3012640F6F678414500D302264FF6F678414500D30326891C48
:203AE0002F44E7622B44A161C4E90853032E12D07AB11844A062022E18D001F0010001EBFF
:203B0000410100EB510000BF00F2FF10BCEB502F0ED20D205CE7002AFBD194F86000D4F843
:203B2000612040EA0220A0628800EDE74800EBE74FF0FF30C4E903904F46032E31D16771F2
:203B4000B4F86400012342196261607804F1340100F0ABFC28BBB4F83202A0F52A41553929
:203B60001FD194F83400D4F8351040EA01201449884216D194F81802D4F8191240EA012043
:203B8000104988420DD194F82002D4F8211240EA0120E06094F81C02D4F81D1240EA0120FC
:203BA000206106492670091F0888401C0880E08027632771204600F007F829E7F800002004
:203BC000525261417272416130B50021064A0C4601EB410352F82350854201D142F823404E
:203BE000491C0229F4D330BDA89C00208269891E921E8A4201D800207047C26A807801FB3F
:203C000000207047002102E04008491CC9B20128FAD1084670472DE9F0410F00064606D031
:203C200001F047F8022809D20120BDE8F081F46814B1B069A04205D8012403E0B16981423A
:203C4000F3D83C462546B0696D1CA84202D80225022C0AD32946304601F02BF838B1411CD5
:203C6000E3D00128E1D0A542EDD10020DDE76FF070422946304601F071FB30B957B12A467A
:203C80003946304601F06AFB20B101280BD001252846CAE7F5603069411CF9D0401E3061BC
:203CA00001207071F4E74FF0FF35F1E72DE9F84F884682460D6800E06D1C28782F28FBD049
:203CC0005C28F9D00024DAF81C702646A85D761C202818D32F2816D05C2814D0FF2C32D20B
:203CE000C0B2012100F042FF5FEA00092BD0B9F1800F04D2014667A0FFF71EFE18BB27F851
:203D00001490641CE2E7AA19C8F80020202801D2042516E0002514E007EB440030F8020C54
:203D200020280DD02E280BD06CB1002027F814000B222021DAF8180001F0B9F9002606E0B6
:203D4000641E002CE8D10620BDE8F88F761C37F816002028FAD02E28F8D01EB145F0030597
:203D600000E0641E2CB107EB440030F8020C2E28F7D1002080464FF0080B009037F81690DD
:203D8000761CB9F1000F24D0B9F1200F04D0B9F12E0F04D1A64202D045F00305EEE7009817
:203DA000584501D2A6421AD1BBF10B0F0FD0A64201D045F003050CD84FF0080000904FEA31
:203DC000886026464FF00B0B4FEA1068D6E745F00305DAF818000178E52937D038E0484671
:203DE000B9F1800F0CD3002100F0C0FE90B12C4945F00205084410F8800C5FEA000904D0E4
:203E0000014628A0FFF798FD38B14FF05F0945F0030512E045F00205F7E7A9F14100192813
:203E200002D848F0020808E0A9F16100192804D8413048F001081FFA80F9DAF8182000997F
:203E400002F801900098401C009097E705210170BBF1080F03D14FEA88604FEA1068C8F31A
:203E60008100032803D06FEA0801890701D145F00205A90709D408F00301012901D145F009
:203E80001005012801D145F00805DAF81800C572002059E7222A3A3C3E3F7C7F0000000015
:203EA0000C6900082B2C3B3D5B5D000070B5084C0D468AB2074B21681944FEF7ABFE206898
:203EC000054928442060884201D30020206070BDD800002000580C008038010000E0401EEA
:203EE0000028FCD1704700002DE9F84F0546002100F082FA002879D14FF0FF0BD946296975
:203F0000286801F013FA06000ED16C69207850B1E17AE52801F03F0103D00A0705D50F2931
:203F200009D0FF204DE0042672E00F2903D0B9F1000F4BD04FE0E96981B3420606D594F89D
:203F40000DB020F04000EA8881462A84484536D1627B5A4533D100912078A04620F04000FA
:203F6000401E00EB80010027DFF8ACA001EBC006012400BF1AF8071001EB0800008874B1CD
:203F800000F010FE0446FF2E19D2009830F81600761C00F007FEA04211D104E02FE0A0F518
:203FA0007F41FF390BD17F1C0D2FE3D398F80000400608D53CB1009830F8160018B1FF2042
:203FC000C0B281461DE0A9F10100F9E7204601F07DFB58451CD04FF6FF702884A8694FF028
:203FE000FF09C17AC9070CD10A2102E011E0491E06D314F8012B10F8013BD21AF7D000E084
:2040000032B10021284600F009F806003FF477AF3046BDE8F88F00008C6900082DE9F041F8
:204020000446C0880F46401C0604360C2CD0206950B331075BD1401C2061E168206829B17D
:204040008278521E12EA161F04D050E00089B0421AD94CE000F02DFE0546012819D9681C22
:2040600030D020688169A9423BD86FB1E168FFF7D2FD05000BD0012D0BD0681C22D02068BB
:2040800001F08CFBF0B906E00420BDE8F0810720FBE70220F9E720684FF400723430002112
:2040A00001F005F829462068FFF7A0FD216800274FF0010808630DE080F80480206801F0C3
:2040C0006DFB08B10120E0E72068016B491C7F1CFFB2016320688178B942EDD8016BC91B3D
:2040E0000163E56029462068FFF780FD2061E68006F00F013422206802EB41110844606196
:204100000020C2E72DE9F05FFF248B460546274604264FF6FF784FF0000964E0286801F0D2
:2041200005F9060063D16869017869B1C27AE52902F03F0206D02E2904D0082A06D0B44663
:20414000DC4506D0FF2440E0042650E04FF0010CF6E70F2A01D0ACBB3EE04A0605D5477B27
:2041600021F04001EA880C462A84A1422BD1417BB94228D10178DFF880A001F03F01491EE4
:2041800001EB810202EBC1010022D5F81CC001261AF8023003441B8836B1FF2913D22CF8C9
:2041A00011301E46491C01E043450CD1521C0D2AEED30078400603D5FF2904D22CF81190F0
:2041C000641E01E00CE0FF24E4B200212846FFF725FF060007D00AE001F078FAB84208D032
:2041E000A5F8208005E02969002997D10EB1C5F810903046BDE8F09F8C6900082DE9FF5F43
:2042000004460C22D4E906763946684600F046FF9DF80B00C00719D00020F8720125E0614A
:204220002B4632466946384600F002FD2046FFF75BFE18B96D1CADB2642DF1D3642D0BD04A
:2042400004280AD19DF80B00F872E6619DF80B00800711D5002005E0072004B0BDE8F09FE5
:20426000401C80B236F810100029F9D119300D21B0FBF1F086B200E001260021204600F0B6
:20428000BBF888B900272169206801F04FF858B960690078E52809D040B1002701212046E1
:2042A000FFF7BCFE0028EED0054679E07F1C3046B742F3D1461E1FFA86FABAF1000F56D019
:2042C000E188A1EB0A0081B2204600F095F8050066D1A06901F0FAF903902169206801F00A
:2042E00025F805005CD16169D4F81C90039848730F20C8720020087388760AF0FF0BC87693
:20430000ABF1010000EB800202EBC00500234FF6FF7E244E4A1C01E0604503D039F8150085
:204320006D1CF446F75CC85516F80380070A08F8027000B960465B1C0D2BEDD3704502D0E1
:2043400039F8150008B94BF0400B81F800B021680120087100212046FFF760FE05001FD1B4
:20436000AAF101001FFA80FABAF1000FB5D12169206800F0DBFF050012D1202200216069DE
:2043800000F095FED4E905010B2200F087FEA0696169C07A00F01800087321680120087182
:2043A00028465AE78C6900082DE9F041018C0446C588A1F57F40FF3800D12946204600F0C4
:2043C0001BF8002816D1E52601272169206800F0ADFF60B961690E7021680F71E188A9421C
:2043E00008D200212046FFF719FE0028EDD0042800D10220BDE8F08170B50D46C180816893
:20440000044601291ED0206882698A421AD921B90278032A04D1816A11B18078060117E00F
:20442000E1600189A9420DD9806A17E0206800F040FC0146401C07D0022903D3206880695F
:20444000884203D8022070BD012070BDA81B85B2B542EBD2E1602068FFF7C8FB00EB1510DA
:20446000206105F00F013422206802EB411108446061002070BD000010B530B1012801D09F
:20448000022802D00348007810BDFDF7C7FC002010BD0000F000002028B1012801D00228DF
:2044A00001D0042070470020704770B514460D4608B1042070BD1A4621462846FDF790FFE5
:2044C0000028F7D0012070BD28B1012801D0022801D0012070470020704770B514460D4650
:2044E00030B91A4621462846FEF7D4F9002800D0042070BD70B5044600F090FA002818D199
:20450000616A491E022915D20B4D01EB410305EB83025189B1F5807F06D009B1491E89B2A9
:204520005181002211B103E00021F9E745F82320226070BD022070BDA89C00202DE9F041B8
:2045400004460E46022802D30B20BDE8F081DFF82080002758F824501DB12846FFF734FBBA
:204560002F7006B1377048F824600020EDE70000F80000202DE9F7478DB007000ED04FF0B9
:20458000000802F01F0626F0010269460EA8C7F80080FFF70BFA040004D0ADE0092010B0F6
:2045A000BDE8F08709A806905548079068460E9900F00AFB059D04000BD11DB1700803D07F
:2045C000012102E0062404E000216846FFF7BCF9044616F01C0F5DD04FF0010ADCB1042CA0
:2045E00014D147490020183902E0401C022805D200EB400251F82220002AF6D1022804D0EF
:204600006846FFF7FBFD044600E01224059D46F0080644B170E0E87A10F0110F44D1700765
:2046200001D5082468E0300744D500F09EFBA873010AE973010C2974000E687485F80B8039
:2046400085F81C8085F81D8085F81E8085F81F802946009800F0A8FC81460021284601F00E
:204660002DF80099B9F1000F81F804A020D000984946D0F830A000F0EEFE04003CD1009971
:20468000A9F10100C8605146009800F04FFE04000CD031E084BBE87AC10601D504242BE089
:2046A000B10703D5C00701D0072425E0300701D546F020060098006BC7E90705700801D031
:2046C000012100E00021684600F022FC7862A8B1BE712946009800F067FC3861287FD5F832
:2046E0001D1040EA0120C7E90280C7F81880009838600098C088B880204650E70224FBE7CC
:20470000C09C002073B584B0040008D00146002205A8FFF74BF92568002618B11EE00920F2
:2047200006B070BDC4F818D00E48E0612046059900F04AFA70B9616931B1C87AC0060FD562
:20474000284600F031FCA060E888A08000212046FFF752FE042803D00028E1D02660DFE74D
:204760000520FBE7C09C00202DE9F05F0F460021984615460446196001F03AF8002803D1C0
:20478000A079010602D50220BDE8F09FC00708D0D4E90210401A04F12809854200D90546F3
:2047A00083E00720F0E7A068C10566D122689178491E01EA502111F0FF0609D118B310463C
:2047C000616900F076FA02281FD3411C4DD0606161692068FFF70AFAB8B100EB060B5FEA5E
:2047E000552A29D0206806EB0A0281788A4201D9A1EB060A0AF0FF0340785A463946FFF7B8
:2048000054FE90BB06E02069DDE7A07940F08000A071B8E7A07940060BD5A169A1EB0B006F
:20482000504506D207EB40204FF40072494600F035FC4FEA4A262EE0A2695A451BD0A079EF
:2048400040060AD52068012349464078FFF745FE58B9A07920F04000A071206801235A4630
:2048600040784946FFF721FE28B1A07940F08000A071012088E7C4F818B02089C0F30800B1
:20488000C0F50076AE4200D92E46011928313246384600F003FCA06837443044A060D8F891
:2048A00000008119AD1BC8F80010002D7FF47BAF002069E7FEB50E46044600F099FF00288B
:2048C00019D1CEB1C4F818D00F48E06100212046FFF718FC0025042813D000280BD13146F3
:2048E000204600F044FA00212046FFF797FB042801D100202561FEBD00212046FFF77CFDC0
:20490000FEBD2561EBE70000C09C002033B59DB00C46012201A91DA8FFF748F800285AD166
:2049200001980B901AA807903B48089001A81D9900F04AF900284ED1022101A8FFF704F838
:20494000002848D10698E8B300F10B01152214A800F0A4FB242201A90BA800F09FFB2146CA
:204960000BA800F031F970B3042834D10BA8FFF745FC00282FD1109C13220DF1520104F1DD
:204980000D0000F08BFB9DF85000012540F02000E072019805710D990398884232D0E07A71
:2049A000C0062FD52146019800F0FEFA01460198FFF71CF9010012D0019800F0B7FC019AA0
:2049C000543201E006E008E0002804D150782E2807D017E004201FB030BD0820FBE70220AD
:2049E000F9E701980078032806D101990D98896A884201D1002100E00D99104600F05EFEAD
:204A00000198057101A8FFF7CFFC0028E3D1019800F069FEDFE70000C09C002070B50446A0
:204A200000F0E6FE00280ED1A1798A060BD548060ED52068012304F128014078A269FFF75D
:204A40004CFD08B1012070BDA07920F04000A071E169206800F06AFC0028F4D1256AE87A86
:204A600040F02000E872207B2877A089000A6877E068000CA877E068000EE8772846216920
:204A800000F01CFE00F071F9A875010AE975010C2976000E68760020A874E874A07920F0D3
:204AA0002000A0712168012008712068BDE8704000F019BE71B595B00122694615A8FEF70F
:204AC00075FF04004CD112A80690274807906846159900F079F8040042D102216846FEF751
:204AE00033FF04003CD1059E56B1F07AC00700D007243146009800F057FA054614B12FE02E
:204B00000624F6E7F07AC0061AD5022D01D2022426E02422694609A800F0C0FA022109A81D
:204B20000B95FFF769FC04001AD1002109A8FFF7E9FA040002D0042C02D011E007240FE0FD
:204B40006846FFF731FC04000AD12DB12946009800F081FC040003D1009800F0C4FD0446E8
:204B600016B0204670BD0000C09C0020802804D30B4A49B1FF2801D90020704702EB40008D
:204B8000A0F580700088704732F81130834203D0491C89B28029F7D38031C8B27047000059
:204BA000C66900080021064B00E0491C33F81120002A04D08242F8D1024830F811007047E6
:204BC000C66A0008A66C000873B50446019801782F2901D05C2901D1401C01900025A56068
:204BE00001980078202805D200212046FFF704FC65617CBD01A92046FFF758F80028F8D1C2
:204C00002046FFF771F9A169C97A28B10428F0D14907EED405207CBD4907FCD46169C87A1F
:204C2000C006F7D5206800F0BFF9A060E2E700007CB516461C4605460B2200F02FFA052C38
:204C400009D9600836F8021B00EBC430084484B230880028F5D107214FEA0D0304F00F0044
:204C60003030392801D9C01DC0B25854491E2409F4D17E205854002200E0521C8A4202D2EB
:204C8000A85C2028F9D1082902D2585C491C00E02020A854521C082AF5D37CBD00B597B027
:204CA000FDF7BCF86846FCF743FFFEF75DFD17B000BD2DE9F0410D460446022902D3A069A9
:204CC000A84202D80120BDE8F0812078012804D0022826D0032837D12FE0606A05EB5506CD
:204CE00000EB5621204600F021FB68BBC6F308002044761C90F83470606A00EB5621204648
:204D000000F014FB00BBC6F308002044E90790F8340047EA002001D00009D4E7C0F30B0064
:204D2000D1E7606A00EB1521204600F0FFFA58B9E8B204EB4000808EC5E7606A00EBD51152
:204D4000204600F0F3FA10B14FF0FF30BBE740F2FF1000EA8500204490F83410D0F8350062
:204D600041EA002020F07040ADE7002070472DE9F0410D4601F109040169C1B34169002379
:204D80000E7BCA5C202A0FD0052A00D1E522370705D5A2F14107192F01D82032D2B25B1CD3
:204DA00004F8012B082BECD30A7A202A13D02E2204F8012B0823CA5C202A0CD0F70605D562
:204DC000A2F14107192F01D82032D2B25B1C04F8012B0B2BEFD3CA7A2A720A7FD1F81D30EB
:204DE00042EA03222A600A8BAA80C98AE9804FF0000884F80080AE69002E1ED0E96900296C
:204E00001BD001690024B1B1018CA1F57F42FF3A11D0C7690BE00021FFF7A8FE18B1E969C6
:204E2000491EA14201D8002405E03055641C37F8020B0028EFD106F80480BDE8F081FBF793
:204E4000FCBB0000034630B52F488488A4F50940893808D14E20FCF7BFFBA3F23F135842D2
:204E600081B24F2011E0A4F51340253805D0C01E03D0A4F5A85005380BD12020FCF7ACFB4C
:204E8000A3F23F13584281B22120BDE83040FCF7A3BB1E48A4F51445821C883D13D12A24CA
:204EA00004801C0A1480DBB2138001231380DF2313802B230380080A1080C8B210800120AA
:204EC00010803F201EE0A4F5AE454FF02A04613D04804FEA13241480DBB213800DD10123A4
:204EE0001380DF2313802B230380080A1080C8B21080012010800F2004E02B230380080A66
:204F00001080C8B2108030BDBC000020FEFF0160F0B50346234AD3F80040002000EB40051A
:204F200052F82560A64209D102EB85059E686F68B74203D12D89DE88B54202D0401C022854
:204F4000ECD3022818D1002002E0401C022805D200EB400552F82550002DF6D1022813D030
:204F600000EB400542F8254002EB85049E686660DB88238100236381002900EB400102EBD0
:204F80008101498902D019B10020F0BD491C01E04FF4807100EB400302EB8302401C51810C
:204FA000F0BD0000A89C00200246488B1278032A02D1898A40EA0140704700001CB54FF4F2
:204FC000A060FCF7A9FBFCF717FBFDF785FE274C2046401EFDD1012241F24E012448FDF7B4
:204FE000EBFDFBF7D7FD0020FBF708FD641EFDD101210802FCF77EFC1E494FF4FC60088075
:205000001D49002008801D48401EFDD14FF400511B48FBF7C0FC1B4818210088A0F514423D
:20502000883A03D0A0F5AE42613A07D116A0CDE900101823C8228C21BE2006E012A0CDE969
:2050400000101823C82264216E20FCF781FA114C20212046FBF79FFC0F49491EFDD120213B
:205060002046FBF796FCFFF719FEFEE7FFFF1F0000000020BC000020BE000020FFFF0F0050
:2050800000140140C0000020426F6F74696E672E2E2E000000100140FFFF2F0004E000BF5E
:2050A00011F8013B00F8013B521EF9D27047C9B201E000F8011B521EFBD270472DE9FC5FB0
:2050C00091489049DFF844B2416100210162904D417045F2617A4FF480694C464A46FF211D
:2050E0008A48FBF7E3F9884B884930332246A1F50A70FFF739FB844CE070A16A4FF4707019
:2051000081421CD2A17801294FF000010A461BD004F1340380465E460020775C13F800C0CC
:20512000401C87EA0C077754491C2028F5D3A06A401CA062404502D2521C202AECD3D4E95A
:20514000020108431AD01FE06F4E5B46343600205F1816F8008097F840C1491C8CEA080CAC
:20516000401C87F840C12028F2D3A06A521C401CA062162AEBD30020A070E0E7DBF8001098
:20518000A160DBF80400E060C4F824B059464FF400726069FDF7E6FE606949F2884800F5A9
:2051A00080606061266A761C2662E088A0802F88474501D0574501D1564800E05648E0623C
:2051C000E06900F00BFC00904FF4C830704300F005FC009900F020FBE16A00F013FC00F042
:2051E000DDFB82B24646E280B74201D0574508D1B2F5F07F10D24FF4FC609B2382210090EE
:2052000007E0B2F5A07F07D24FF4FC6087236E2100900020FBF79AFCE06900F0DFFB074698
:20522000206A800200F0DAFB3C4900F0EBFB394600F0F2FA00F0B2FB80B2E080632802D952
:205240006320E0800FE00A280DD20A21B0FBF1F201FB12012C4830317C30017025214170BA
:205260000021817010E083B20A22B3FBF2F7264807F130017C30017002FB17313031417029
:20528000252181700021C1702888B04201D0504509D11D4918207C31C822CDE9000103466E
:2052A000A021104608E0184918207C31CDE9000103468C21C8220846FCF74AF9206B484576
:2052C000BFF40BAF2888A0F51441883901D0504508D1182012A1C822CDE900010346A02131
:2052E000104607E018200EA1CDE9000103468C21C8220846FCF72CF9BDE8FC5F0A48FEF746
:20530000EDBD000000700008040000205C050020C00000209A999940CDCC4C400000C842AB
:205320003130302500000000FFFF0F0070B50446006B0D46A8420ED0204600F02FFA38B945
:20534000607801232A4604F13401FFF7AEF808B1012070BD2563002070BD00002DE9F047F2
:2053600017460D460446022902D3A069A84202D80220BDE8F087217807F0FF084FF0010948
:20538000012908D0022938D0032947D05FF0020084F80490EDE7606A05EB550600EB5621E9
:2053A0002046FFF7C3FF0028F2D1C6F3080020443430E90703D0017868F31F1100E0394635
:2053C000017084F80490606A761C00EB56212046FFF7ACFF0028DBD1C6F308012144343127
:2053E000EA0702D0C7F3071205E00A78C7F3032302F0F0021A430A70CAE7606A00EB152179
:205400002046FFF793FF0028C2D1E9B204EB41013A0A81F8348081F83520B9E7606A00EB83
:20542000D5112046FFF782FF0028B1D140F2FF1101EA85010A1934324FF07043D2F80110F6
:2054400003EA0121394311700B0A53700B0C9370090ED1709CE72DE9F0410E460746022960
:2054600018D3B869B04215D900254FF001081DE031463846FFF71DFC04001AD0012C09D0DE
:20548000601C09D0002231463846FFF767FF05000FD103E002250CE001250AE03869411C5B
:2054A00003D0401C386187F805802646B869B042DED82846BDE8F0817CB5002000903A4C00
:2054C000042221463948FDF777FB384801784E2908D14178412905D181784E2902D1C1789A
:2054E0004F290BD00178FF294AD04178FF2947D08178FF2944D0C178FF2941D02C48008803
:20550000FBF77CFA2B4818240088A0F51441883903D0A0F5AE41613910D127A0CDE90040B2
:205520001823C8226421B420FCF712F825A0CDE900401823C8228221AA200FE01EA0CDE940
:2055400000401823C8225A216420FCF701F81DA0CDE900401823C82278215A20FBF7F8FF27
:2055600000244FF4C00500BF05EB0440FDF700FB641C1F2CF8D30D4901201839C8707CBD4E
:205580004E2101704122427081704F21C1704FF4FE00FDF7EDFA02B02146BDE870400422D4
:2055A0000248FDF737BB0000E0FF7F00AC000020BE000020C000002053504920466C617341
:2055C00068000000464F4E542045726173696E672E2E2E001CB52E480088FBF70FFA0422C9
:2055E0002C492D48FDF7E8FA2B4801784E2908D14178412905D181784E2902D1C1784F29C2
:205600000BD00178FF2941D04178FF293ED08178FF293BD0C078FF2838D02048182400884F
:20562000A0F51441883903D0A0F5AE41613910D11BA0CDE900401823C8226421B420FBF7CC
:2056400087FF1AA0CDE900401823C8228221AA200FE013A0CDE900401823C8225A216420C6
:20566000FBF776FF11A0CDE900401823C82278216420FBF76DFF00242004FDF779FA641C4D
:20568000602CF9D3044901201839C8701CBD0000BE000020E0FF7F00AC000020C0000020FA
:2056A00053504920466C6173680000005049432045726173696E672E2E2E000081760A0A96
:2056C000C2760A0C0275090E41757047014600200B22430803EBC01011F8013B521E1844D3
:2056E000C0B2F6D170472DE9F041044600F056F8050050D12078032846D16079E8B3002651
:2057000004F134004FF40072314607462663FFF7CEFC552084F83202AA2084F8330252208C
:2057200084F8340084F83500612084F83600412184F83710722284F8182284F8192284F833
:205740001A1284F81B02206984F81C02010A84F81D12010C84F81E12000E84F81F02E068FF
:2057600084F82002010A84F82112010C84F82212000E84F82302607800E005E00123394625
:205780006269FEF7AAFE6671002260781146FEF783FE00B101252846BDE8F0812DE9F04161
:2057A0000446007910B3256B04F13401607801232A460F46FEF791FE10B10120BDE8F0816C
:2057C00000202071606AA84210D8E1690844A8420CD9E67808E0E0690123054460782A46D3
:2057E0003946FEF77AFE761E022EF4D20020E5E710B538B1016829B10A781AB1CA888088AF
:20580000824201D0092010BD4878FEF75DFEC007F9D0032010BD00004FF47F0C1CEAD012B7
:205820001EBF1CEAD11392EA0C0F93EA0C0F00F0858090EA010F48BF42F4807240F4000C84
:2058400041F400002CF07F4120F07F4000B58142A2EB03020FF2081CACEB504EC0F1000053
:205860009EF800E04FEA4E0E00FB0EFC38BF49004FEA2C1C02F5FA020CFB0EF34FEACE1E37
:205880004FEA112C4FEAC1210EEB635E42EB22420EFB0CFC4FEA1C5300FB03114FEA112CEE
:2058A0004FEA01310EFB0CFC4FEADC4C00FB0C11C14228BF09184CEB03335DF804EB10EB3C
:2058C000410143EBC250B2F57C0F38BF704729D512F0F00F1CBF00F1C04000F000407047B4
:2058E000008182838485868788898B8C8D8E8F919293959697999A9C9D9FA0A2A3A5A7A8DE
:20590000AAACAEB0B2B3B5B7B9BCBEC0C2C5C7C9CCCED1D4D7D9DCDFE2E6E9ECF0F3F7FADD
:20592000FE0000004FEA400C0CF1807CBCF17E4F28BF7047B0F1C04000F02BB990EA010FD4
:205940000CEAD11348BF42F48072624538BF634507D213F47F0F16D080EA010000F0004009
:20596000704710B500F0CFF8097EFC3E00F005B880EA010000F00040704780EA010000F0D9
:20598000004000F006B912F47F0F04BF0248704780EA010000F0FDB80000C07FC10DD1F1E1
:2059A0009E0206DB4FEA002343F0004323FA02F07047004207D54FEA4001B1F1FE4F02D273
:2059C0004FF00000704710B500F09DF849922480002070476FEA200070470000B0FA80F3E4
:2059E00010FA03F2C3F19D030AD0D90501EB1220530638BF704700F1010008BF20F00100AD
:205A0000704700004FF47F0C1CEAD0121EBF1CEAD11392EA0C0F93EA0C0F00F0478090EAF2
:205A2000010F48BF42F480724FF0004C4CEA00204CEA012102EB0302A0FB0113A2F50002B4
:205A4000002918BF43F001035B0028BF4FEA330342EB22425FEA132C4CEBC2502EBFBCEB68
:205A6000436FB2F57C0F70474FEA036CBCF1004F08BF20F00100B2F57C0F38BF70470BD54F
:205A800082F0FF0212F5803FC8BF704700F1C040D8BF00F00040704700F5000C5FEA4C0C7E
:205AA00048BF7047B0F1C04000F073B890EA010F0CEAD11348BF42F48072624538BF634593
:205AC00004D280EA010000F00040704710B500F01AF800BF8900013E00F007B800F009B8F0
:205AE0005FEA410C5FEA1C6C08D080EA010000F050B85FEA400C5FEA1C6CF6D14FF0004058
:205B0000A0F5800070470EF1020E2EF0030E5EF8044B244204D44FEA4102B2F17F4F11D8C2
:205B20004FEA4003B3F17F4F0CD80ED14FEAD07CB2F17F4F0CEB4C0C0CF1020C08BF4CEB66
:205B4000D17C04E04FF0080C01E04FEAD17C0CEB4C0324FA03F404F00704B4F1040C06D273
:205B60000EEB840CBDE810404CF0010C6047DFE80CF0070802024FF00040A0F5800010BD80
:205B80000846420018BFD2F1807288BF00F0004010BDFF2141EAD050C00570473025000069
:205BA0000000000000000000000000000000000000000000000000000000000000000000E5
:205BC0000000000000000000000000000000000000000000000000000000000000000000C5
:205BE0000000000F80380FFE380F80380000000000000000000000000000000000000100D1
:205C0000000600000C00003800003100000600000C0000380000300000000000000000008F
:205C200061800067F807F9800061800061800061800061800067F807F98000618000000060
:205C400000000000000001C0E003E0F00630080418081FFFFE040E080787F00381E0000056
:205C60000000000001F000060C00040408060C7001F9C0000E00003BE000EC18070808048D
:205C80000C180003E00000000001E00007F003F818041C0804170807E1D003C0E00023B099
:205CA000003C080020080000100000000000000100003100003200001C00000000000000E8
:205CC0000000000000000000000000000000000000000000000000000000000000000000C4
:205CE0007F0001FFC00780F00C00181000042000020000000000002000021000040C00183A
:205D00000780F001FFC0007F00000000000000000000000000000000000000004200006625
:205D200000006600003C0000180003FFC0001800003C000066000066000042000000000085
:205D4000080000080000080000080000080001FFC000080000080000080000080000080033
:205D600000000000000100003100003200001C0000000000000000000000000000000000A3
:205D80000000000000000000080000080000080000080000080000080000080000080000C3
:205DA00008000008000000000000000000000000380000380000380000000000000000002B
:205DC00000000000000000000000000000000000000600001C000070000180000E0000386A
:205DE0000000C0000700001C0000300000000000000000007F8001FFE0038070060018049C
:205E0000000804000806001803807001FFE0007F800000000000000000000100080100086C
:205E200001000803FFF807FFF800000800000800000800000000000000000001C03802C08E
:205E400058040098040118040218040418061C1803F81801E0F800000000000000000001CC
:205E6000C0E003C0F004000804080804080806180803F41801E7F00001E0000000000000AD
:205E8000000000000300000D0000110000610000810803010807FFF80FFFF80001080001DD
:205EA000080000000000000000E007FCD0060808061008061008061008061838060FF00656
:205EC00007C0000000000000000000003F8001FFE00384300208180410080410080410082F
:205EE000071810030FF00007C000000000000000000003C0000700000600000600F80607CF
:205F0000F806180006E00007000006000000000000000001E1E003F7F0063410041808045A
:205F20001808040C08040C0806161803F3F001C1E000000000000000F80003FC30030638ED
:205F40000402080402080402080404100308F001FFC0007F000000000000000000000000C5
:205F6000000000000000000070380070380070380000000000000000000000000000000029
:205F8000000000000000000000000000301A00301C0000000000000000000000000000006B
:205FA0000000000000000008000014000022000041000080800100400200200400100800E3
:205FC0000800000000000000210000210000210000210000210000210000210000210000B1
:205FE000210000210000000000000000000008000804001002002001004000808000410097
:2060000000220000140000080000000000000003C00004C000040000080038080F38080818
:20602000380810000C300007E00003C000000000000000003F8000FFE0038070020F100672
:20604000708804C088048308047F8802C09003012000FE400000080000180001F8003E084F
:2060600001C20007020007E20000FE00001FC80001F800003800000804000807FFF807FF3D
:20608000F804080804080804080804080806180803F41801E7F00001E000000000000000CA
:2060A0003F8001FFE00380700200180400080400080400080400100600200780C00000008F
:2060C00004000807FFF807FFF804000804000804000804001802001003807001FFE0007F14
:2060E0008000000004000807FFF807FFF8040808040808040808040808043E08040008066C
:20610000001801006000000004000807FFF807FFF8040808040800040800040800043E0084
:20612000060000060000018000000000000000003F8001FFE0038070060018040008040210
:20614000080402080203F00783F000020000020004000807FFF807FFF80408080008000092
:20616000080000080000080004080807FFF807FFF8040008000000000000040008040008D3
:2061800004000807FFF807FFF80400080400080400080000000000000000000000060000CD
:2061A0000700000104000104000104000307FFFE07FFFC04000004000004000004000807A1
:2061C000FFF807FFF8040C08001800003E0004C7800503C80600F8040038040018000008E3
:2061E00004000807FFF807FFF804000800000800000800000800000800000800001800004B
:206200006000000004000807FFF807800807FC00007FC00003F80007C00078000780080773
:20622000FFF807FFF804000804000807FFF807000803C00000E000003800001E0000070044
:206240000001C00400F007FFF8040000000000007F8001FFE0038070060018040008040087
:206260000806001803003001FFE0007F8000000004000807FFF807FFF804040804040004C2
:206280000400040400040400060C0003F80001F000000000000000007F8001FFE00380701A
:2062A0000600880400880400C806003C03003E01FFE6007F8400000004000807FFF807FF7C
:2062C000F8040808040800040C00040F00040BC00610F003F03801E0080000080000000191
:2062E000E0F803F030063010041808041808040C08040C080206180207F00781E000000064
:2063000001800006000004000004000004000807FFF807FFF80400080400000400000600CC
:206320000001800004000007FFE007FFF004001800000800000800000800000800000804B4
:20634000001007FFE004000004000006000007E00007FE00041FE00001F80000380001E038
:20636000043E0007C00006000004000004000007E00007FFC0041FF80007C007F80007FF72
:2063800080043FF80007C004F80007000004000000000004000806001807C07805F1C8004D
:2063A0003E00001F800463E80780F806001804000800000004000006000007800007E00888
:2063C000047C08001FF80007F800180804E0080700000600000400000000000100080600F3
:2063E000380400F80403E8040F08047C0805F00807C0080700180400600000000000000088
:2064000000000000000000000000003FFFFE20000220000220000220000220000200000096
:2064200000000000000008000007000000C0000038000006000001C000003000000E000050
:20644000010000000000000000002000022000022000022000022000023FFFFE0000000055
:20646000000000000000000000000000000000000008000010000030000020000030000084
:206480001000000800000000000000000000010000010000010000010000010000010000DE
:2064A000010000010000010000010000010000010000000000000000002000002000001086
:2064C00000001000000000000000000000000000000000000000000000F00019F8001B1878
:2064E000002208002608002408002410003FF8001FF800000800001800000004000007FF6C
:20650000F80FFFF0001818001008002008002008003018001FF0000FC000000000000000C7
:2065200007C0001FF0001830002008002008002008003C08001C10000060000000000000F5
:206540000000000007C0001FF000381800200800200800200804101007FFF80FFFF000007D
:20656000100000000000000000000007C0001FF0001230002218002208002208003208002B
:206580001E10000E2000000000000000200000200800200801FFF803FFF8062008042008E3
:2065A00004200807200003000000000000000000000E000E6E001FF30031B10020B1002016
:2065C000B1003191001F13002E1E00200E00300000000004000807FFF80FFFF80010080044
:2065E0002000002000002008003FF8001FF80000080000000000000000000020080020088D
:20660000002008063FF8063FF80000080000080000080000000000000000000000000000C0
:2066200003000003002001002001002003063FFE063FFC0000000000000000000000000467
:20664000000807FFF80FFFF8000188000300002FC00038F8002038002008000008000000FB
:2066600000000000000004000804000804000807FFF80FFFF80000080000080000080000DA
:2066800000000000002008003FF8003FF8001008002000003FF8003FF80010080020000086
:2066A0003FF8003FF8000008000000002008003FF8003FF80010080010000020000020085E
:2066C000003FF8001FF80000080000000000000007C0000FF00018300030080020080020D6
:2066E00008003008001830000FF00007C0000000000000002001003FFF003FFF001011008E
:206700002009002008002008003038001FF0000FC00000000000000007C0001FF000381894
:20672000002008002008002009001011001FFF003FFF0000010000000020080020080020F2
:2067400008003FF8003FF800080800100800200800200000300000300000000000000000F3
:206760000000000C78001E180033080023080021080021880021980030F0003860000000B6
:2067800000000000200000200000200000FFF003FFF8002008002008002008000030000008
:2067A00000000000000000002000003FF0007FF8000018000008000008002010003FF80084
:2067C0007FF0000010000000000000002000003000003C00003F800023F0000078000070F4
:2067E000002380003C00003000002000002000003C00003FE00023F80000E0002700003E8F
:2068000000003FE00021F80001E0003E00002000000000002008002008003838003E68009B
:2068200027800003C8002CF8003838002018002008000000000000002000003003003C0162
:20684000003F830023EC000070002380003C000020000020000000000000000000000038A0
:20686000080020380020F80023E8002F88003E0800380800201800007000000000000000B0
:2068800000000000000000000000000008000014001FF7FC30000620000200000000000072
:2068A000000000000000000000000000000000000000FFFFFF0000000000000000000000DB
:2068C000000000000000000000002000023000061FF7FC0014000008000000000000000032
:2068E000000000000000000000000018000060000040000040000020000010000008000068
:206900000400000400000C0000100000809A90418E418F804545454949498E8F9092924FC0
