:020000040800F2
:20000000F8C5002009770008197500081B7500081D7500081F750008217500080000000079
:20002000000000000000000000000000237500082575000800000000277500082975000834
:20004000F1770008F5770008F9770008FD7700080178000805780008097800080D780008AC
:200060001178000815780008197800081D7800082178000825780008297800082D78000888
:200080003178000835780008397800083D7800084178000845780008497800084D78000868
:2000A0005178000855780008597800085D7800086178000865780008697800086D78000848
:2000C000717800087578000879780008377500087D78000881780008857800088978000881
:2000E0008D7800089178000895780008997800089D780008A1780008A5780008A978000828
:20010000AD7800083D750008B1780008B5780008B9780008BD780008C1780008C578000896
:20012000C9780008CD7800084375000849750008D1780008D5780008D9780008DD78000847
:20014000E1780008E5780008E9780008ED7800084F75000855750008F1780008F57800087F
:20016000F9780008FD7800080179000805790008097900080D7900081179000800000000D7
:2001800015790008197900082AB111F8013B00F8013B521EF9D17047130003D00A46194655
:2001A00001F0A2BE704710B400231446621E2CB110F8013B11F8014B1B1BF6D0184610BCDA
:2001C000704700E0401C90F90020002A18BF8A42F8D11046704770B400220023DFF8D44983
:2001E000256875B1D0F80062B54202BF6568D0F80862B54202BF2589B0F80662B54201D12C
:2002000004E001225B1C0C34022BE9D3022B05D192B9022910D0122070BC704749B9DFF8F0
:20022000940903EB430100EB81004089B0F5807F02D1102070BC7047002070BC704700200D
:20024000DFF8701951F80C2B12B1401C0228F9D3022801D1002070470120704730B40022F8
:20026000DFF850391C68D0F80052AC4202BF5C68D0F80852AC4202BF1C89B0F80652AC42A9
:2002800003D0521C0C33022AECD3022A28D10022DFF8203953F80C4B14B1521C022AF9D3AF
:2002A000022A27D0D0F80032DFF8084902EB4205AD002B51D0F8083202EB420504EB8504EE
:2002C0006360B0F80602DFF8EC3802EB420403EB840318810020DFF8DC3803EB8403588116
:2002E0000029DFF8D00802EB420100EB8100408906D010B1002030BC70474FF4807000E054
:20030000401CDFF8B01802EB420301EB83014881501C30BC7047401E022825D2DFF8941866
:2003200000EB400201EB82014989B1F5807F18BF002908D10021DFF87C2800EB400302EB1A
:200340008302518109E0491EDFF8682800EB400302EB8302518189B221B90021DFF8542894
:20036000980081500020704702207047DFF8441802220B68834204BF00230B600C31521ED7
:20038000F7D17047F8B50546002495F8040228B3D5F82C6201233246294695F8010201F06D
:2003A000FDFD08B1012419E085F80402D5F82002301AD5F81812884210D295F80302022851
:2003C0000CD3471ED5F81802861901233246294695F8010201F0E2FD7F1EF3D12046F2BD72
:2003E00070B504460D460026D4F82C02854211D02046FFF7C7FF06000CD101232A46214673
:2004000094F8010201F0BEFD10B14FF0FF350126C4F82C52304670BD38B50446FFF7B2FF8B
:20042000050064D194F80002032804BF94F80502012854D14FF4007200212046FFF7ACFE49
:20044000552084F8FE01AA2084F8FF015220207060706120A0704120E070722084F8E4015F
:2004600084F8E501412084F8E601612084F8E701D4F8100284F8E801D4F810020004000E3E
:2004800084F8E901D4F81002000C84F8EA01D4F81002000E84F8EB01D4F80C0284F8EC010E
:2004A000D4F80C020004000E84F8ED01D4F80C02000C84F8EE01D4F80C02000E84F8EF0141
:2004C000D4F81C02401CC4F82C0201230246214694F8010201F062FD002084F80502002275
:2004E000002194F8010201F065FD00B10125284632BD891ED0F81422921E914201D30020A9
:20050000704790F80222D0F8280202FB010070472DE9F04180460D46022D5CD3D8F814022D
:20052000854258D24FF0FF3698F80002012804D051D3032836D024D34DE005EB5504D8F835
:20054000200200EB54214046FFF74AFF002843D1E005C00D10F80870641CD8F8200200EB89
:2005600054214046FFF73CFFB0BBE005C00D10F8080047EA0027E8075ABF3E05360D3E09F5
:200580002AE0D8F8200200EB15214046FFF728FF10BB6800C00508EBD0504178007840EA35
:2005A000012619E0D8F8200200EBD5114046FFF717FF88B9A800C00508EBD050C1788278D2
:2005C000120442EA0161427841EA0221007808430601360900E001263046BDE8F081F8B526
:2005E00004460D461646022D6ED3D4F8140285426AD294F80002012804D065D3032846D0A9
:2006000034D361E005EB5507D4F8200200EB57212046FFF7E5FE002857D1F80514EBD05149
:200620007F1CE80743BF087800F00F0040EA061030460870012084F80402D4F8200200EB05
:2006400057212046FFF7CCFE00283ED1F90514EBD151EA0748BF320906D40A7802F0F00233
:20066000330A03F00F031A430A7029E0D4F8200200EB15212046FFF7B3FE30BB6900C9051A
:2006800014EBD1510E703604320E4A7018E0D4F8200200EBD5112046FFF7A2FEA8B9A900CA
:2006A000C90514EBD151CA78120602F0704216430E703204120E4A70320C8A70320ECA70B4
:2006C000012184F80412F2BD0220F2BDF8B504460F46022F0CD3D4F81402874208D20026DF
:2006E00039462046FFF714FF050022D0012D01D102261EE015F1010F01D1012619E00022C5
:2007000039462046FFF76BFF060012D1D4F8100210F1010F08D0401CC4F8100294F8050227
:2007200040F0010084F805022F46D4F814028742D6D33046F2BDF8B504460E0008D1D4F86D
:200740000C721FB1D4F8140287420FD301270DE0FFF7DEFE022801D20120F2BD10F1010FF9
:2007600042D0D4F8141288423ED337463D466D1CD4F81402854202D30225022F2CD32946CD
:200780002046FFF7C5FE00BB6FF0704229462046FFF725FF28B92EB12A4631462046FFF77C
:2007A0001EFFD8B9C4F80C52D4F8100210F1010F19D0D4F81002401EC4F8100294F80502FC
:2007C00040F0010084F805020DE010F1010F18BF012809D0BD42CAD10020F2BD01280CBF31
:2007E0004FF0FF3501252846F2BDD0F82422121D490AD0F8000290F80202B1FBF0F001E0F0
:20080000401A121D52F8041B09B9002070478842F6D2116808187047F8B504460D46A4F885
:200820000652D4F80862012E3ED0D4F80002D0F81402864238D24EB9D4F8000290F8000210
:20084000032804D1D4F80002D0F8246256B9D4F80002B0F80802854226D2D4F80002D0F898
:2008600024021EE0D4F8000290F80202070100E0ED1BBD423146D4F8000210D3FFF748FEA7
:20088000064616F1010F01D10120F2BD022E0BD3D4F80002D0F814028642E9D304E0FFF73B
:2008A00028FEC4F80C6208B90220F2BD00EB1510C4F81002D4F8000205F00F0195E0F8B583
:2008C00004460D46B4F80602461C30041CBFD4F8100200282AD016F00F0F40F08080401CA6
:2008E000C4F81002D4F80C020028D4F8000204D1B0F80802864272D318E090F80202401EE4
:2009000010EA161F6BD1D4F80C12D4F80002FFF7FFFD0746022F17D317F1010F4BD0D4F85B
:200920000002D0F81402874250D30DB90420F2BDD4F80C12D4F80002FFF7FDFE070001D1D0
:200940000720F2BD012F01D10220F2BD17F1010F31D0D4F80002FFF715FD60BB4FF400722F
:200960000021D4F80002FFF717FC3946D4F80002FFF7BFFDD4F80012C1F82C02002509E0AD
:20098000D4F80002D0F82C02401CD4F80012C1F82C026D1CD4F8000290F8020285420CD2EA
:2009A0000120D4F8001281F80402D4F80002FFF7E9FC0028E4D00120F2BDD4F80002D0F8CE
:2009C0002C02401BD4F80012C1F82C02C4F80C723946D4F80002FFF78CFDC4F81002A4F859
:2009E0000662D4F8000206F00F0100EB4110C4F814020020F2BD70B504460D460021FFF705
:200A00000BFFE0B90026D4F81012D4F80002FFF7E7FCA0B9D4F814120978E5291EBFD4F8F5
:200A200014120978002903D1761CAE4201D170BD002601212046FFF742FF0028E3D00428A5
:200A400008BF072070BDCA7E8B7E43EA022290F80002032805D1487D097D41EA002042EA8C
:200A600000421046704781760A04120EC2760A0C0275090E417570472DE9F84380460D464F
:200A8000287820F04000401E0D2101FB00F900270124DFF8986C3078401940783178495DB6
:200AA00041EA002074B101F0B0FA0446B9F1FF0F19D238F8190001F0A8FA09F10109844298
:200AC00004D010E04FF6FF7188420CD17F1C761C0D2FE0D32878400608D5002C1CBF38F8E0
:200AE0001900002802D00020BDE8F2830120BDE8F283F0B40A7802F03F02521E0D235A43D8
:200B000000230124DFF8245C2E78761876782F787F5C47EA06263CB1FF2A3EBF344620F890
:200B20001240521C04D30CE04FF6FF77BE4208D15B1C6D1C0D2BE7D30978490607D5FF2AD7
:200B400002D30020F0BC7047002120F812100120F0BC7047F0B44B730F23CB7200230B73EC
:200B60008B76CB76531E0D246343DFF8C04B0D2503E04FF6FF77BE4202D030F813605B1C55
:200B800027787E54371294F800C08C448CF801700EB94FF6FF76641C6D1EEAD14FF6FF748B
:200BA000A6421ABF30F81300002842F040020A70F0BC704770A500207CB5044616461D4651
:200BC0000B22FFF7E1FA062D12D3308880B136F8020B102100F0010202EB45054008EA034B
:200BE00044BF85F4883585F02105491EF2D1ECE707200DF1070105F00F023032D2B23A2AA7
:200C0000A8BFD21D01F80129401E2D09F3D17E2100AA81540021224600E0491C814203D27F
:200C200012F8013B202BF8D10A46511C08283DBF00ABC35C401C202313550829F4D373BD78
:200C400000210B220B46C90101EB530110F8013B5918C9B2521EF5D1084670472DE9F04139
:200C600080460021FFF7D8FD07005AD1FF25FF264FF6FF70A8F82402D8F81012D8F8000209
:200C8000FFF7AEFB07004CD1D8F81442207808B9042746E0E17A01F03F01E52836D00A0711
:200CA00002D50F2932D101E00F291CD1D8F8201289B3410607D5657B00F0BF000646B8F830
:200CC0000612A8F82412F6B2B04204BF607B854207D12146D8F82002FFF7CEFE08B1761EE7
:200CE00019E0FF2617E0F6B226B92046FFF7A8FF854216D0D8F81802C07AC00706D40B22B6
:200D0000D8F818122046FFF74EFA50B1FF264FF6FF70A8F8240200214046FFF7D0FD070024
:200D2000AAD03846BDE8F0812DE9F04104468846FF26FF270425D4F8100200283AD001467B
:200D4000D4F80002FFF74CFB050033D1D4F81402017809B904252EE0C27A02F03F02E529AE
:200D600018BF2E292DD022F02003082B0CBF01230023434525D10F2A25D14A0607D5477B33
:200D800001F0BF010E46B4F80622A4F82422F6B2B14204BF417B8F4213D10146D4F8200294
:200DA000FFF7A7FE68B1761E00212046FFF787FD0500C0D015B10020C4F810022846BDE88E
:200DC000F081FF26F0E7F6B226B14FF6FF70A4F82402F3E7FFF734FF8742EFD0F5E72DE934
:200DE000F04184B00446D4F81852D4F820820C22294600A8FFF7C8F99DF80B00C0071DD54B
:200E00000020E872C4F8200201263346424600A92846FFF7D1FE2046FFF720FF070002D121
:200E2000761C642EF1D3642E08BF07206FD0042F6CD19DF80B00E872C4F820829DF80B00A3
:200E400080070CD5002600E0761C38F8020B0028FAD106F119000D21B0FBF1F500E001258D
:200E600029462046FFF7C7FD07002CD16D1E2BD0B4F80602411B2046FFF7CEFC070022D129
:200E8000D4F81802FFF7DCFE0646D4F81012D4F80002FFF7A5FA070015D13346EAB2D4F831
:200EA0001412D4F82002FFF755FE0120D4F8001281F8040200212046FFF701FD070002D102
:200EC0006D1EE2D100E00FBBD4F81012D4F80002FFF786FA070019D120220021D4F81402C2
:200EE000FFF75AF90B22D4F81812D4F81402FFF74BF9D4F81802C07A00F01800D4F8141250
:200F000008730120D4F8001281F804023846BAE370B50446B4F80652B4F824024FF6FF71C3
:200F200088420CBF294601462046FFF775FC060023D1D4F81012D4F80002FFF751FA06009C
:200F400018D120220021D4F81402FFF725F9E520D4F8141208700120D4F8001281F8040262
:200F6000B4F80602A84208D200212046FFF7A7FC0600DED0042E08BF0226304670BD2DE94B
:200F8000F0410C4604F10906D0F81012B1B3D0F8141200256A566D1C202A16D0052A08BFFA
:200FA0006FF01A02092D04BF2E2306F8013BA2F141031A2B07D2092D2CBF102308230F7B34
:200FC0001F4218BF203206F8012B0B2DE2D3CA7A2272CA7F8B7F1B0443EA02624B7F42EA9F
:200FE00003220B7F1A4322604A7E0B7E43EA0222A280CA7D897D41EA0221E18000213170E1
:20100000A16919B300250E46D0F8101200291CBFE16900291EBFB0F824124FF6FF729142DC
:2010200012D0D0F82072B04602E008F8010B6D1C37F8020B40B1002100F0CCFF18B1E169EB
:20104000491E8D42F1D300250020A855BDE8F0812DE9F84F80460C46266800E0761C96F93A
:2010600000002F2818BF5C28F8D0D8F8200200904FF000090025B246834616E0B9F1FF0F98
:2010800032D20121F8B200F0A5FF07002CD0802F05DA3946DFF89806FFF793F820BB2BF8E8
:2010A000027B09F101090AF1010A9AF90070BFB26D1C202F03DB2F2F18BF5C2FDED1A8194F
:2010C0002060202FACBF002404240AE0009800EB490030F8027C202F18BF2E2F07D1A9F139
:2010E0000109B9F1000FF1D10620BDE8F28F0020009921F819000B222021D8F81802FFF7E6
:201100004BF80025009801E06D1C801C0188202918BF2E29F8D00DB144F00304009800EB85
:20112000490030F8020C2E2802D0B9F10109F5D10026B2464FF0080B01E044F0030400986A
:2011400030F815706D1C7FB1202FF6D02E2F01D14D45F2D15E4501D24D4542D1BBF10B0FAF
:2011600030D144F00300C4B2D8F818020078E52803D10520D8F818120870BBF1080F08BF5D
:201180004FEA8A0A0AF00C000C2819BF0AF00300032844F00200C4B2A0070DD40AF0030017
:2011A000012804BF44F01000C4B20AF00C00042804BF44F00800C4B2D8F81802C4720020A2
:2011C000BDE8F28F4D451CBF44F00300C4B2A94521BF4D4608264FF00B0B4FEA8A0AAED29E
:2011E000C2E7802F0EDB0021384600F0F3FE070004D0DFF84005381810F8807C44F00200AD
:20120000C4B22FB13946DFF83005FEF7DAFF20B15F2744F00300C4B20DE0A7F141001A2813
:2012200038BF4AF0020A06D3A7F161001A283CBF4AF0010A203FD8F818023754761C7EE752
:2012400013B5044691F900002F2819BF91F900005C28481C01900020C4F80802019890F9B8
:20126000000020280DD200212046FFF7D5FA0021C4F8141216BDD4F80002FFF7E4FBC4F8C6
:20128000080201A92046FFF7E3FE98B92046FFF7E5FCD4F81812C97A20B104280AD149076E
:2012A00008D406E0490705D4D4F81412C87AC006E1D4052016BD10B44FF0FF310268C2B18C
:2012C00000E0521C92F90030202B01D33A2BF8D13A2B0DD1036813F9014B303C0A2C08D236
:2012E000934206D1022C04D22146521C026000E00021084610BC704710B50446002084F88A
:2013000004024FF0FF30C4F82C022046FFF768F808B1032010BD94F8FF0194F8FE1141EAB8
:2013200000204AF65521884201D0022010BD94F8380094F83710090241EA004094F836106E
:201340000843DFF8F81388420DD094F8540094F85310090241EA004094F852100843DFF864
:20136000DC13884201D1002010BD012010BD2DE9F04184B007461446002038600846FFF7E9
:201380009AFF060048BF0B2000F17D81DFF8B00350F826500DB90C2075E13D6095F80002D1
:2013A00058B195F8010200F0D3FDC10705D4002C00F06881400711D464E1002085F800021E
:2013C00085F8016295F8010200F0CCFDC10748BF032000F158811CB1400701D50A2052E1E1
:2013E000002600212846FFF787FF0446012C28D1002000A905F5DF7213794BB1D37A947A55
:20140000240444EA0363547A43EA0423147A234341F8043B401C10320428EDD300270DF1D3
:201420000008D8F8006026B131462846FFF764FF00E00220040004D07F1C08F10408042FB2
:20144000EFD3032C08BF012000F01D81002C01BF287BE97A41EA0020B0F5007F40F0A08074
:20146000E87DA97D51EA00200DD195F8270095F82610090441EA006095F8251040EA01208C
:2014800095F824100843C5F81802297C85F80312012918BF022940F083804843697B85F8E7
:2014A000021200297CD04A1E114279D1A97C6A7C42EA0121A5F8081211460F2211426FD173
:2014C000297DEA7C52EA01220DD195F8231095F82220120442EA016195F8212041EA022174
:2014E00095F820200A43E97BAB7B53EA012157D04318B5F8084203EB14139A4250D3D21A70
:2015000095F80242B2FBF4F2002A49D0012440F6F677BA4228BF02244FF6F677BA4228BFBE
:201520000324921CC5F81422C5F81C628919C5F820129919C5F82812032C14D1B5F80802A3
:2015400070BB95F82F0095F82E10090441EA006095F82D1040EA012095F82C100843D5F84B
:201560001412890013E0B5F80812C9B1D5F820124018022CD5F8141208BF490007D001EB3D
:20158000410195F8142202F0010202EB5101C5F82402D5F8180201F2FF11B0EB512F01D257
:2015A0000D2070E04FF0FF30C5F81002C5F80C02802085F80502032C01BF95F8310095F848
:2015C000301041EA002001284FD1711C2846FEF707FF002849D185F8050295F8FF0195F861
:2015E000FE1141EA00204AF6552188423DD1E878A978090441EA0060697840EA012029781D
:2016000008435049884230D195F8E70195F8E611090441EA006095F8E51140EA012095F82F
:20162000E4110843484988421FD195F8EB0195F8EA11090441EA006095F8E91140EA0120B4
:2016400095F8E8110843C5F8100295F8EF0195F8EE11090441EA006095F8ED1140EA012073
:2016600095F8EC110843C5F80C0285F8004237480088401C354908800888A5F806022846FF
:20168000FEF774FE002004B0BDE8F08180B500281CBFD0F80012002912D091F8001279B117
:2016A000D0F80012B1F80612B0F80422914207D1D0F8000290F8010200F04AFCC00701D5EE
:2016C000092002BD002002BD73B582B01446009100A8FFF7F0FD050048BF0B2023D41848E5
:2016E00050F825602EB13046FEF740FE002086F80002029818B9124941F825000BE00020C6
:20170000029981F8000202980D4941F82500029808B1012C02D0002004B070BD002203A944
:2017200002A8FFF724FE04B070BD0000A8760008187700082C740008A8770008464154009F
:2017400098A500205252614172724161E0A500202DE9F243ADF5876D5FEA000908BF092098
:2017600000F0D2800020C9F8000202F01F0505F0FE020DF58761FFA81030FFF7F8FD070076
:2017800040F0C18000A8CDF8240403A8CDF82C04DDF8381483A8FFF753FD0700DDF82064B1
:2017A0000CD10EB9062709E005F0FE00411E8941C943C90F83A8FEF70EFD07461C20054274
:2017C0006CD0002F62D0042F08D1FEF738FD20B183A8FFF704FB074600E0122745F008059D
:2017E000DDF82064B7BB28073AD500F035FC0146B1730004000EF073080C3074080E70742D
:201800000020F07230777077B077F0773146DDF80C04FFF718F9044600213046FFF723F9D4
:201820000120DDF80C1481F80402ACB1DDF80C04D0F82C822146FEF749FF07000AD1601E57
:20184000DDF80C14C1F80C024146DDF80C04FEF7C7FD0746002F56D1280748BF45F0200574
:20186000DDF80C04D0F82C02C9F81C02C9F8206205F0FE00411E8941C943C90F83A8FEF74B
:20188000EDFCC9F82802B8B902273CE0F07A112108420FD16807A6D5082734E0002FD9D1F2
:2018A000F07AC00648BF04272DD4A807D4D5F07AC007D1D5072726E089F80652002089F8E8
:2018C00007023146DDF80C04FFF7BDF8C9F81002F07FB17F090441EA0060717F40EA0120B3
:2018E000317F0843C9F80C020020C9F80802C9F81802C9F82402DDF80C04C9F80002B0F821
:201900000602A9F80402384600F03DBA2DE9F047824616461F468846002038605046FFF7CB
:20192000B5FE002840F0C5809AF8070200B1C2E09AF80602C00758BF072040F1BA80DAF88D
:201940000C02DAF80812401AB04220D806461EE0CAF81892DAF80802C005C00DC0F5007000
:201960003446864288BF04462246DAF80802C0050AEBD0514046FEF707FCA044DAF8080237
:201980002018CAF80802386820183860361B002E00F08E80DAF80802C005DBD1DAF808022D
:2019A000DAF8001291F80212491E01EA5020C4B2DCB9DAF8080210B9DAF810020EE0DAF890
:2019C000240228B1DAF808125046FEF70EFF05E0DAF81412DAF80002FEF79AFD02280BD33F
:2019E00010F1010F62D0CAF81402DAF81412DAF80002FEF77EFD08B9022058E004EB00097D
:201A0000750A2DD0DAF8000290F802022919884204D2DAF8000290F80202051B2B464A4687
:201A20004146DAF8000290F8010200F0ABFA00283CD19AF80602400610D5DAF81802A0EBBA
:201A40000900A8420AD24FF400725146DAF81802A0EB090008EB4020FEF796FB6C028CE731
:201A6000DAF8180248453FF473AF9AF80602400610D50123DAF818225146DAF8000290F8B0
:201A8000010200F08BFA88B99AF8060200F0BF008AF8060201234A465146DAF8000290F813
:201AA000010200F06FFA00283FF452AF012006E00020BDE8F0879AF90702BDE8F0878AF8F1
:201AC0000702BDE8F08738B50446FFF7DFFD00285AD194F80612890656D594F8060240064D
:201AE00012D50123D4F818222146D4F8000290F8010200F053FA08B1012032BD94F806027B
:201B000000F0BF0084F80602D4F81C12D4F80002FEF766FCC0BBD4F82052E87A40F0200008
:201B2000E872D4F80C022877D4F80C020004000E6877D4F80C02000CA877D4F80C02000E1A
:201B4000E877D4F810122846FEF78DFF00F084FAA8750104090EE975010C2976000E6876AC
:201B60000020A874E87494F8060200F0DF0084F806020120D4F8001281F80402D4F800029A
:201B8000BDE83240FEF748BC32BD10B50446FFF79AFF58B92046FFF779FD38B9D4F82802DE
:201BA000FEF7B9FB10B90021C4F8001210BD32B5ADF5047D040008BF092045D0002284A995
:201BC00000A8FFF7D4FB050039D10098C4F8000201A8C4F8180204A8C4F8200284992046A7
:201BE000FFF72EFB050026D1D4F8140248B1C07AC00622D5D4F814120098FEF724FFC4F89A
:201C000008020098B0F80602A4F8040200212046FEF702FE05000ED1D4F8080210B9C4F815
:201C20001C0210E000212046FEF718FBC4F81C0248B9122504E0042D01D1052500E015B13E
:201C40000020C4F8000228460DF5057D30BD10B50446FFF71BFD48B9D4F81C1219B1084697
:201C6000FEF759FB10B90021C4F8001210BD30B5ADF5037D04460D46FFF708FD18BB25B946
:201C800000212046FEF7C8FD1DE000A8C4F8180203A8C4F8200200212046FFF745F8042819
:201CA00003D10020C4F8100200E060B929462046FFF765F900212046FEF701FE042804BFD6
:201CC0000020C4F810020DF5037D30BD31B5ADF5CC6D01220DF5CC6140F234606844FFF72C
:201CE00046FB00284CD100A8CDF84C0603A8CDF85406DDF86016FFA83830FFF7A1FA20B911
:201D00000221FFA83830FEF766FA002838D1DDF848460CB9062033E0E07AC0071CD4214632
:201D2000DDF83406FEF78FFE050019D0E07AC00616D54FF40A72FFA9383183A8FEF724FA0B
:201D4000CDF81454022183A8FEF766FDC0B9002183A8FEF7E9FF08B9072011E004280FD129
:201D6000FFA83830FFF7D4F828B92DB12946DDF83406FEF7ABFC18B9DDF83406FEF74CFB9D
:201D80000DF2646D30BD0DF23C4DBDE8F08313B5ADF5CF6D01220DF5CF6140F24C60684461
:201DA000FFF7E5FA002840F08B80DDF84C06CDF8240400A8CDF8640609A8CDF86C06DDF843
:201DC0007816FFA85030FFF73BFA20B90221FFA85030FEF700FA002872D1DDF8600608B9AA
:201DE00004206DE0152200F10B0103A8FEF7CCF94FF40A72FFA9503189A8FEF7C5F940F2DB
:201E00007C606844FFF757FA002807D4DDF87C1689A8FFF715FA18B9082051E00B204FE0CF
:201E200004284DD189A8FEF7DAFF002848D1DDF8384413220DF10E0104F10D00FEF7A4F9F1
:201E40009DF80C0040F02000E0720120DDF84C1681F80402E07AC00629D5DDF85406DDF846
:201E60002C14884223D02146DDF84C06FEF7EBFD0146DDF84C06FEF73CFB08B902201FE07E
:201E80000146DDF84C06FEF7ABFADDF84C1601F12004A8B960782E2809D1DDF82C14204609
:201EA000FEF7E1FD0120DDF84C1681F80402FFA85030FFF72DF818B9DDF84C06FEF7ACFAA3
:201EC0000DF5D06D10BD50F8041B61B150F8042BD30744BFA9F101039A180023091F42F854
:201EE000043BFAD1EFE7704762F30F2262F31F42401810F0030308D0C91A1FD3DB0748BF1B
:201F000000F8012D28BF20F8022D130030B414461546103928BF20E93C00FAD8490728BF43
:201F200020E90C0048BF40F8042D890028BF20F8022D48BF00F8012D30BC7047C91818BFDD
:201F400000F8012DCB0728BF00F8012D7047000001461F480818007B1D4A02EB81014968F5
:201F60004968084701460020194A8A5C4AB90120174A88548818007B02EB810149680968A4
:201F80000847704738B5044611482018007B104D05EB84046468A468A04732BD38B504463E
:201FA0000B482018007B0A4D05EB84046468E468A04732BD18B4034605481818007B044C01
:201FC00004EB83035B681B6901B010BC1847000088A50020802817DB51B1FF2801DD00205B
:201FE0007047134901EB4000A0F58070008870470F4A32F8023B984203D0491C89B2802928
:20200000F7DB01F18000C0B270470021094A00E0491C1388002B1CBF32F8023B9842F7D1F0
:20202000044A32F8112012B1034830F811007047E4710008486C0008286E000880B50349C1
:20204000034800F02FF80349087001BDA0A5002094760008EAA500200020704730B4012397
:20206000114CA47B032C1ADA00230F4CA57B2B552346A47B03EB840358600B48837B18186D
:2020800002730948807B421C074B9A73303008703A2048702F2088700020C87000231846B8
:2020A00030BC70470022D9E788A5002030B589B004460D4600208DF80C002077204601F0F4
:2020C00037F80020039004900590069007906620089003A983B06846182201F067F80EBCC9
:2020E000206801F08FF8204600F088FC8DF80C009DF90C0018BB204600F0F6FB8DF80C0028
:202100009DF90C00D8B92946204600F026FA8DF80C009DF90C0040B9B5F854000204002351
:20212000204600F054FC8DF80C00211D83B06846182201F03BF80EBC206801F063F89DF9B7
:202140000C0009B030BD2DE9F0478CB007461446884600203968C862DDF85090386A022863
:2021600004D14FF40079640A44EAC354CDF800901020019040200290002003904FF480603D
:20218000049000A9386801F05FF81021384600F025FD5FEA000A40F09B804FF0FF300590B8
:2021A000159E09FB06F0069090200790022008900020099001200A9005A9386801F065F8CB
:2021C000022E2CBF122011200190009400A9386801F03AF8022E1CD31221384600F0FEFC36
:2021E0005FEA000A74D13868406B40F22A3108422CD13868406B0004F5D5444608253868B8
:2022000001F013F844F8040B6D1EF8D108F12008E9E71121384600F0E1FC5FEA000A0FD083
:2022200056E03868406B00040AD544460825386800F0FBFF44F8040B6D1EF8D108F1200839
:202240003868406B40F22A610842EAD03868406BC0050BD5022E09D3386A00281CBF0128A8
:20226000022803D1384600F010FB82463868406B000704D508203968886304202FE038686D
:20228000406B800703D502203968886327E03868406B800604D520203968886306201EE0E5
:2022A0003868406B800500D514E04FF0FF3405E0386800F0BAFF48F8040B641E3868406BC9
:2022C000800201D5002CF3D140F2FF5039688863504604E04FF400703968886307200CB00D
:2022E000BDE8F0872DE9F0478CB007469046002489468DF800403968CC62149E386A022811
:2023000005D14FF400764FEA582040EAC3580196102002904020039004944FF4806005909C
:2023200001A9386800F090FF1021384600F056FC002840F0C580DDF854A0BAF1020F2CBFD6
:20234000192018200290CDF8048001A9386800F07BFFBAF1020F2CBF19211821384600F0F5
:202360003DFC002840F0AC8006FB0AF84FF0FF30069006FB0AF007909020089009940A9484
:2023800001200B9006A9386800F07FFFBAF1020F38D30BE04D4608262946386800F046FF0D
:2023A0002D1D761EF8D109F1200920343868406B40F21A31084245D13868406B4004F5D57E
:2023C000A8EB04002028E5D210F0030F0EBF85088008451C002DE9D04946386800F026FFE8
:2023E00009F10409241D6D1EF6D1DFE74D4608262946386800F01AFF2D1D761EF8D109F103
:20240000200920343868406B40F21A61084219D13868406B4004F5D5A8EB04002028E5D224
:2024200010F0030F0EBF85088008451C002DE9D04946386800F0FAFE09F10409241D6D1E77
:20244000F6D1DFE73868406BC0050BD5BAF1020F08D3386A00281CBF0128022802D138461F
:2024600000F013FA3868406B000704D5082039688863042033E73868406B800703D5022076
:20248000396888632BE73868406BC00604D5102039688863052022E73868406B800500D525
:2024A00018E740F2FF503968886300A9384600F085FD28B99DF80010072918BF0629F4D0F7
:2024C0000DE710B504462068406BC0050BD54FF48070216888630120A0640020E06420468B
:2024E00000F039F82FE02068406B800703D502202168886323E02068406B000704D5082046
:202500002168886304201AE02068406B800604D5202021688863062011E02068406BC006D3
:2025200004D5102021688863052008E02068406B800508D54FF40070216888630720E064EA
:20254000204600F009F82068C06BDFF87C1708402168C86310BD704770472DE9F0030023A4
:20256000026A81F85620426AA1F85420826A120E94090C70C2F383044C7002F003028A7039
:20258000826A120CCA70826A120A0A71826A4A71C26A120E1201CA80C26AC2F30742CC88A6
:2025A00044EA1214CC8002F00F020A72C26AC2F30722D4094C72C2F380148C72C2F3401407
:2025C000CC72C2F300140C734B73046A002C18BF012C43D102F0030292020A610A6990F814
:2025E0002C4042EA84020A61026B120E0C6944EA92140C61C2F3C2040C7502F007024A7559
:20260000026B1202120E54098C75C2F38204CC7502F0030252000A76026B1204120E0C7E49
:2026200044EAD2140C760C69641CC1E91243D1E9126701240D7EAD1CAC40A4FB0689C1E9A0
:20264000128901240D7AAC400C65D1E91267A4FB068904FB0799C1E9128926E0022C23D169
:2026600090F82C2002F03F0212040A610A69046B240E42EA04220A610A69046B240242EACD
:2026800014620A61026B1204120E0C690025641C45F10005ED0445EA5435E404C1E91245CF
:2026A0004FF400740C6500E02923C2F380144C7602F03F0252008A7690F830208C7E44EA26
:2026C000D2148C7602F07F02CA76426B120ED4090C77C2F341144C77C2F382048C7702F035
:2026E00003029200CA77426B1202120ECC7F44EA9214CC77C2F3401481F82040002481F840
:20270000214002F0010281F82220426B1204120ED40981F82340C2F3801481F82440C2F331
:20272000401481F82540C2F3001481F82640C2F3810481F8274002F0030281F8282090F865
:202740003420520881F82920012281F82A20826B120E81F82C20826B1202120E1202CA85CD
:20276000CA8D846B240442EA1462CA8590F8382012060A630A6BC46B240E42EA04420A63E0
:202780000A6BC46B2402240E42EA04220A630A6BC46B240442EA14620A63C26B81F83420A9
:2027A000026C120E81F83520026C1202120E12068A638A6B046C2404240E42EA04428A63F8
:2027C0008A6B90F8404042EA04228A638A6B446C42EA14628A63426C1202120E91F83C40A2
:2027E00044EA121481F83C4002F00F021202CA87CA8F446C240442EA1462CA8790F8440038
:20280000400881F84000012081F841001846BDE8F003704770B58AB005460E460024286A7B
:20282000032808BF272027D000281CBF0128022821D1B6F5805F08BF27241CD0B6F5006F7E
:202840001CD1284600F0A6FA040014D168680390A8680490E8680590069668690790A869A3
:20286000089003A983B06846182200F09FFC0EBC286800F0C7FC20460AB070BD1EB92846CF
:2028800000F0B8FAE0E72624F5E710B586B00446002000900C200190402002900020039052
:2028A0004FF48060049000A9206800F0CDFC0C219FE080B500F00AF8042801D1002002BDC7
:2028C000FF2801D1022002BD012002BD80B50021009100A900F02EF908B1FF2002BD009868
:2028E000400A00F00F0002BD30B587B0044600250120ADF80000206800F0A2FC10B925205B
:2029000007B030BD206A04285ED0019502200290C020039004954FF48060059001A92068EF
:2029200000F092FC204600F0E7F905004CD1002000F0A1FCA063042000F09DFCE0630820F9
:2029400000F099FC20640C2000F095FC6064206A002818BF012803D0062818BF02280ED16A
:20296000032002904020039001A9206800F06CFC00AA0321204600F0D3F9050024D1206AB1
:20298000042821D0BDF8000060620004019009200290C020039001A9206800F055FC204607
:2029A00000F0AAF905000FD1002000F064FCA062042000F060FCE062082000F05CFC206388
:2029C0000C2000F058FC6063284607B030BD10B586B0044600920720019040200290002011
:2029E00003904FF48060049000A9206800F02CFC0721204600F0F2F806B010BD70B586B0FE
:202A0000044600208DF8000000250646DFF8FC160860206800F00FFC012000F083FC0120D1
:202A2000DFF8E816086001950295039504954FF48060059001A9206800F006FC204600F0C9
:202A40009BF88DF800009DF9000000286DD14FF4D5700190082002904020039001A920686A
:202A600000F0F2FB204600F09BF88DF800009DF9000018B9012020624FF08046019537200F
:202A8000029001A9206800F0DFFB3721204600F0A5F88DF800009DF90000002845D10020E4
:202AA00001903720029040200390002004904FF48060059001A9206800F0C6FB372120469C
:202AC00000F08CF88DF800009DF9000068BBDFF84006304301902920029040200390002035
:202AE00004904FF48060059001A9206800F0ACFB204600F0EBF88DF800009DF90000A0B914
:202B000000F0B9FB6D1CC10F03D14FF6FF718D42C5D34FF6FF718D4203D31B208DF80000AE
:202B200003E0400044BF022020629DF9000006B070BD000030B585B004460D0008BF2620D4
:202B400018D0606A000400900D20019040200290002003904FF48060049000A9206800F0F4
:202B600073FB0D21204600F039F818B900F083FB2860002005B030BD4FF480310268526B8E
:202B8000D20902F001023AB90268526BD20902F00102491EF7D100E009B903207047A5E04B
:202BA0004FF480310268526B12F0450F08D10268526B12F0450F02D1491EF8D100E0491E04
:202BC0000268526B09B1510700D58AE00168496B490601D540218BE02920704738B5044638
:202BE0000D462068406B10F0450FFAD02068406B400704D5042021688863032032BD2068AC
:202C0000406BC00703D501202168886332BD206800F02EFBA8422BD140F2FF50216888636A
:202C2000002000F028FBDFF8EC1408424AD001D51C2032BD410001D5092032BD810001D59F
:202C40000A2032BDC10001D50B2032BD010101D50C2032BD410101D50D2032BDC10101D5EB
:202C60000E2032BD010201D50F2032BD410201D5102032BD810201D5112032BDC10201D5F6
:202C8000122032BD010301D5132032BD410301D5142032BD810301D5152032BDC10301D5C2
:202CA000162032BD010401D5172032BD410401D5182032BD810401D5192032BD000701D54C
:202CC0001A2032BD002032BDC53CFFFF0168496B11F0450FFAD00168496B490700D500E05F
:202CE00004E00421006881630320704740F2FF5100688163002070470168496B11F0450F8E
:202D0000FAD00168496B490700D5EAE70168496BC90704D501210068816301207047E5E7FE
:202D200070B504460D4616462068406B10F0450FFAD02068406B400704D504202168886339
:202D4000032070BD2068406BC00703D501202168886370BD206800F08BFAA84212D140F293
:202D6000FF5021688863002000F085FA10F4604F02D1000C30800BE0810401D5132070BD19
:202D8000410401D5102070BD000401D50F2070BD002070BD10B588B0044605A80021002201
:202DA00006C0084600F067FA800148BF0E201FD405A9204600F05AF8D0B90698400316D55A
:202DC000606A000400903720019040200290002003904FF48060049000A9206800F034FA02
:202DE00037212046FFF7FAFE10B9022031E0252008B010BD10B588B0044605A8002100222A
:202E000006C0084600F037FA800148BF0E201ED405A9204600F02AF8C8B90698C00315D5E3
:202E2000606A000400903720019040200290002003904FF48060049000A9206800F004FAD1
:202E400037212046FFF7CAFE08B902E0252008B010BD00900620019000A9206800F0F4F934
:202E600006212046FFF7BAFE08B010BDF0B58DB004460D46002600A800210A4606C00820E6
:202E80000290102003904020049005914FF48060069002A9206800F0D7F910212046FFF71A
:202EA0009DFE070040F08880606A000402903720039002A9206800F0C7F937212046FFF757
:202EC0008DFE070078D14FF0FF300790082008903020099002200A900B9601200C9007A99F
:202EE000206800F0D2F902963320039002A9206800F0AAF933212046FFF770FE07000AD04C
:202F00000DB0F0BD800206D5206800F08EF900A941F82600761C2068406B40F22A61084217
:202F20002068406BEED0000705D508202168886304200DB0F0BD2068406B800704D50220E0
:202F4000216888630DB0F0BD2068406B800605D520202168886306200DB0F0BD2068406B89
:202F6000800506D54FF400702168886307200DB0F0BD40F2FF5021688863009800F47F41F8
:202F8000090241EA00600099090A01F47F410843009940EA11606860019800F47F4109029B
:202FA00041EA00600199090A01F47F410843019940EA1160286038460DB0F0BD30B587B018
:202FC00005460C4600200090686A000401900D20029040200390002004904FF4806005901F
:202FE00001A9286800F030F92868406B10F0450FFAD02868406B400705D504202968886329
:20300000032007B030BD2868406BC00704D501202968886307B030BD286800F029F90D28F6
:203020003BD140F2FF5029688863002000F023F900900098400A00F00F0020700098354944
:2030400008425FD00098002848BF1C205BD40098400048BF092056D40098800048BF0A204A
:2030600051D40098C00048BF0B204CD40098000148BF0C2047D40098400148BF0D2042D477
:203080000098C00148BF0E203DD40098000248BF0F2038D40098400202D5102007B030BD30
:2030A0000098800248BF11202DD40098C00248BF122028D40098000348BF132023D40098CA
:2030C000400348BF14201ED40098800348BF152019D40098C00348BF162014D40098000420
:2030E00048BF17200FD40098400448BF18200AD40098800448BF192005D40098000748BFDB
:203100001A2000D4002007B030BD0000A08025420000108008E0FFFD1F482049086000208A
:2031200048608860C8600861486107208861704700681949884200D0704700B587B00020D7
:2031400000901748006840F4006015490860086800F40060009000984FF4F8500190022094
:20316000029000200390032004900C20059001A90C4800F0E9F8042001900220029000203A
:203180000390032004900C20059001A9064800F0DBF807B000BD0000002C014084A1002043
:2031A0004438024000080240000C0240103A07D330B4B1E83810103AA0E83810F9D230BCFF
:2031C000530724BFB1E80810A0E8081044BF51F8043B40F8043BD20724BF31F8022B20F835
:2031E000022B44BF0B7803707047083A07D3B1E80810083A40F8043B40F804CBF7D2530742
:20320000E4E700000EB441682A4A1140009A1143019A11431943039A1143049A1143059AF8
:2032200011434160002003B0704740E00968C0F88010002070470321FFE70160002070471D
:20324000006800F0030070470A688260C268120B0B69D1F804C04CEA0303D1F808C04CEABD
:203260000303C968194341EA0231C160002070470069C0B2704781B0002100910E49081879
:2032800000900098006801B070470A6842624A688262C26A22F0F7028B681A43CB681A4373
:2032A0000B691A4349691143C16200207047D0F8800070470081FFFF142C014080B51F48A2
:2032C000006840F400701D490860086840F480600860086840F480700860032000F07CF9A4
:2032E000002000F004F800F0AAF9002002BD10B50446134800684FF47A71B0FBF1F000F0D4
:203300007CF9002221464FF0FF3000F066F9002010BD0C480068401C0A490860704709482A
:203320000068704711B581B0FFF7F9FF0446FFF7F6FF001B01998842F9D313BD003C0240BB
:2033400068060020DCA50020F8B400220023012404FA02F50C682C40AC4240F0B9804D6847
:20336000022D18BF122D17D1D50800EB85052E6AD50800EB85050F2702F0070C4FEA8C0CD8
:2033800007FA0CF7BE430F6902F0070C4FEA8C0C07FA0CF73E432E62056803269E40B54359
:2033A0000E7906F003069E40354305604D68012D18BF022D03D0112D18BF122D11D18568ED
:2033C00003269E40B543CE689E4035438560456801269640B5434E68C6F300169640354308
:2033E0004560C56803269E40B5438E689E403543C5604D68ED006BD500250095384D2D68D5
:2034000045F48045364E3560356805F480450095009D344D960855F826500F2602F00307F5
:20342000BF00BE40B543304EB04208BF002622D02E4EB04208BF01261DD02D4EB04208BF0B
:20344000022618D02B4EB04208BF032613D02A4EB04208BF04260ED0284EB04208BF05268B
:2034600009D0274EB04208BF062604D0254EB0420CBF0726082602F00307BF00BE40354389
:20348000184E970846F827501F4D2D68A5434E68F60348BF25431C4E35601C4D2D68A54386
:2034A0004E68B60348BF2543184E3560184D2D68A5434E68F60248BF2543154E3560154DDA
:2034C0002D68A5434E68B60248BF2543114C2560521C9B1C102AFFF43AAFF1BC7047000011
:2034E0004438024008380140000002400004024000080240000C02400010024000140240C5
:2035000000180240001C0240003C0140043C0140083C01400C3C01403E4909684FF6FF02A9
:20352000114000F0070041EA00203B49084339490860704737480068C0F3022070470121F3
:2035400000F01F029140354AFFE7400942F820107047002807D50901314A00F00F0080189A
:2035600000F8041C704709012E4A8154704700F00700C0F10703052B28BF0F2305D2012378
:20358000C0F1070C03FA0CF35B1E00F1040CBCF1070F34BF0020C01E19408140012303FA02
:2035A00000F0401E10400843704780B5411EB1F1807F01D3012002BD401E1B4908600F2128
:2035C0004FF0FF30FFF7C5FF002018490860072017490860002002BD9EE770B504460D46C5
:2035E0001646FFF7A7FF32462946FFF7C0FF01462046BDE87040ACE7A1E7D6E704280C48DD
:2036000000680CBF40F0040020F0040008490860704700000CED00E00000FA0500E100E026
:2036200018ED00E000E400E014E000E018E000E010E000E080B500F001F801BD704780B59D
:203640000320FFF7C9FF002200216FF00B00FFF7C4FF002211466FF00A00FFF7BEFF00226C
:2036600011466FF00900FFF7B8FF002211466FF00400FFF7B2FF002211466FF00300FFF78A
:20368000ACFF002211466FF00100FFF7A6FF002211464FF0FF30BDE80840FFF79EBF0000E4
:2036A00001B48AE001B4BDF80000DFF8801A88E02C20F7E70029DFF8781A096814BF08435D
:2036C00021EA0000DFF8681A086070470029DFF8641A096814BF084321EA0000DFF8541A0A
:2036E0000860704710B483B000220092019202925DE00122009B9A4001920A68019B1A4009
:203700000292029A019B9A424ED1009A03680324520004FA02F223EA02020260009A0368FA
:2037200091F90440520004FA02F21A43026091F90420012A18BF022A23D1009A836803243C
:20374000520004FA02F223EA02028260009A836891F90540520004FA02F21A438260009AC1
:203760004368012404FA02F223EA02024260009A436891F90640A4B204FA02F292B21A43D6
:203780004260009AC3680324520004FA02F223EA0202C260009AC36891F90740A4B25200E6
:2037A00004FA02F21A43C260009A521C0092009A102A9ED303B010BC7047BDF80000DFF8F7
:2037C0002C1A088001B0704781B0DFF8200A0088ADF80000BDF8000001B07047DFF80C1A3A
:2037E0000880704703B500E003B581B0DFF8000A008849F28841884224D12A20FFF752FF4C
:20380000BDF80400000AFFF74BFFBDF80400C0B2FFF746FF0120FFF743FFDF20FFF740FFB2
:203820002B20FFF73FFFBDF80800000AFFF738FFBDF80800C0B2FFF733FF0120FFF730FF78
:203840003F2017E02A20FFF72DFFBDF80400000AFFF726FFBDF80400C0B2FFF721FF2B203C
:20386000FFF720FFBDF80800000AFFF719FFBDF80800C0B203B05DF804EB11E707B5BDF8CF
:203880000410BDF80000FFF7AFFFFFF711FFBDF8080003B05DF804EBA0E700B583B0002072
:2038A0000290029001217A20FFF704FF01210120FFF70CFF4FF44050009001208DF80400DE
:2038C00000208DF806008DF8050001208DF8070000A9DFF82009FFF705FF4CF233700090F2
:2038E00002208DF8040000208DF8050000A9DFF80409FFF7F7FE4FF68070009000A9DFF8B6
:20390000F808FFF7EFFE4FF40060009000A9DFF8E408FFF7E7FE8020009000A9DFF8D408BE
:20392000FFF7E0FE0C220021DFF8C80800F0ADFD0C220121DFF8BC0800F0A7FD0C22042151
:20394000DFF8B00800F0A1FD0C220521DFF8A40800F09BFD0C220821DFF8980800F095FD9B
:203960000C220921DFF88C0800F08FFD0C220A21DFF8800800F089FD0C220E21DFF874082A
:2039800000F083FD0C220F21DFF8680800F07DFD0C220721DFF8600800F077FD0C22082158
:2039A000DFF8540800F071FD0C220921DFF8480800F06BFD0C220A21DFF83C0800F065FDD9
:2039C0000C220B21DFF8300800F05FFD0C221146DFF8240800F059FD0C220D21DFF8180811
:2039E00000F053FD0C220E21DFF80C0800F04DFD0C220F21DFF8000800F047FD0C220B213A
:203A0000DFF8F00700F041FD0C220721DFF8E40700F03BFD03B000BD00B597B0032000904B
:203A2000002001900820029000200390049005904FF080500690002007900890082009908A
:203A400010200A9000200B900D900C900E900F904FF480501090002011901290139000A80A
:203A60001490159007A800F02FFD0121002000F096FD17B000BD80B5FFF70FFFBDE80140CA
:203A8000CAE780B5FFF7F7FFDFF864070088FF280BDBDFF85C0700884FF6FF7188421EBF5F
:203AA000DFF84C070088002820D10120FFF7FAFDD320FFF7F7FDFFF787FEDFF8341708802B
:203AC000FFF782FEDFF828170880FFF77DFEDFF820170880088800020880FFF775FEDFF871
:203AE000101709880843DFF808170880DFF80007008849F2884188421FBFDFF8F4060088DA
:203B000049F28641884223D00A20FFF70BFC0420FFF7C8FD0A20FFF705FCFFF755FEDFF89F
:203B2000D0160880FFF750FEDFF8C4160880FFF74BFEDFF8BC160880088800020880FFF71A
:203B400043FEDFF8AC1609880843DFF8A4160880DFF89C06008849F28841884240F0FA801D
:203B6000F720FFF79FFDA920FFF79AFD5120FFF797FD2C20FFF794FD8220FFF791FDEC2046
:203B8000FFF790FD0020FFF78BFD0220FFF788FD0320FFF785FD7A20FFF782FDC020FFF7E7
:203BA00081FD1320FFF77CFD1320FFF779FDC120FFF778FD4120FFF773FDC520FFF772FDE9
:203BC0000020FFF76DFD2820FFF76AFD8020FFF767FDB120FFF766FDB020FFF761FD112047
:203BE000FFF75EFDB420FFF75DFD0220FFF758FDB620FFF757FD0220FFF752FD2220FFF724
:203C00004FFDB720FFF74EFDC620FFF749FDBE20FFF748FD0020FFF743FD0420FFF740FD58
:203C2000E920FFF73FFD0020FFF73AFDF420FFF739FD0020FFF734FD0020FFF731FD0F2002
:203C4000FFF72EFDE020FFF72DFD0020FFF728FD0420FFF725FD0E20FFF722FD0820FFF74B
:203C60001FFD1720FFF71CFD0A20FFF719FD4020FFF716FD7920FFF713FD4D20FFF710FD34
:203C80000720FFF70DFD0E20FFF70AFD0A20FFF707FD1A20FFF704FD1D20FFF701FD0F201D
:203CA000FFF7FEFCE120FFF7FDFC0020FFF7F8FC1B20FFF7F5FC1F20FFF7F2FC0220FFF7BD
:203CC000EFFC1020FFF7ECFC0520FFF7E9FC3220FFF7E6FC3420FFF7E3FC4320FFF7E0FC63
:203CE0000220FFF7DDFC0A20FFF7DAFC0920FFF7D7FC3320FFF7D4FC3720FFF7D1FC0F2089
:203D0000FFF7CEFCF420FFF7CDFC0020FFF7C8FC0020FFF7C5FC0F20FFF7C2FC3620FFF730
:203D2000C1FCDFF890060078EE2814BFA8206820FFF7B6FC3A20FFF7B5FC5520FFF7B0FCE8
:203D40001120FFF7AFFC7820FFF7ECFA2920FFF7A9FCE3E1DFF89804008849F286418842AE
:203D600040F0F980C020FFF79DFC0B20FFF798FC0B20FFF795FCC120FFF794FC4320FFF704
:203D80008FFCC520FFF78EFC0020FFF789FC4020FFF786FCB120FFF785FCB020FFF780FC36
:203DA0001120FFF77DFCC220FFF77CFC2220FFF777FCB420FFF776FC0220FFF771FCB720D0
:203DC000FFF770FCC620FFF76BFCE020FFF76AFC0F20FFF765FC1920FFF762FC1720FFF7A2
:203DE0005FFC0620FFF75CFC0B20FFF759FC0520FFF756FC4920FFF753FC6720FFF750FC9A
:203E00003D20FFF74DFC0720FFF74AFC1220FFF747FC0520FFF744FC1720FFF741FC0A2049
:203E2000FFF73EFC0020FFF73BFCE120FFF73AFC0F20FFF735FC3820FFF732FC3A20FFF7B6
:203E40002FFC0820FFF72CFC0920FFF729FC0220FFF726FC4D20FFF723FC5220FFF720FC6D
:203E60003820FFF71DFC0620FFF71AFC0D20FFF717FC0120FFF714FC2420FFF711FC2020C5
:203E8000FFF70EFC0020FFF70BFCF220FFF70AFC1820FFF705FCA320FFF702FC1220FFF7E9
:203EA000FFFB0220FFF7FCFBB220FFF7F9FB1220FFF7F6FBFF20FFF7F3FB1020FFF7F0FB10
:203EC0000020FFF7EDFBF820FFF7ECFB2120FFF7E7FB0420FFF7E4FB3620FFF7E3FBDFF8DC
:203EE000D4040078EE2814BFE8202820FFF7D8FB3A20FFF7D7FB0520FFF7D2FBF920FFF757
:203F0000D1FB0020FFF7CCFB0820FFF7C9FBF120FFF7C8FB3620FFF7C3FB0420FFF7C0FB6D
:203F20000020FFF7BDFB3C20FFF7BAFB0F20FFF7B7FB8F20FFF7B4FB1120FFF7B3FB782014
:203F4000FFF7F0F92920FFF7ADFB49F28840DFF8A0120880E2E0DFF89802008848F25251EF
:203F6000884240F0DB801120FFF79CFB7820FFF7D9F93620FFF796FBDFF838040078EE2850
:203F800014BFA4206420FFF78BFB3A20FFF78AFB0520FFF785FBB220FFF784FB0C20FFF7B1
:203FA0007FFB0C20FFF77CFB0020FFF779FB3320FFF776FB3320FFF773FBB720FFF772FBB9
:203FC0003520FFF76DFBBB20FFF76CFB2920FFF767FBC020FFF766FB2C20FFF761FBC2209E
:203FE000FFF760FB0120FFF75BFBC320FFF75AFB1020FFF755FBC420FFF754FB2020FFF700
:204000004FFBC620FFF74EFB0F20FFF749FBD020FFF748FBA420FFF743FBA120FFF740FBB5
:20402000E020FFF73FFBD020FFF73AFB0020FFF737FB0220FFF734FB0720FFF731FB0A2033
:20404000FFF72EFB2820FFF72BFB3220FFF728FB4420FFF725FB4220FFF722FB0620FFF767
:204060001FFB0E20FFF71CFB1220FFF719FB1420FFF716FB1720FFF713FBE120FFF712FB35
:20408000D020FFF70DFB0020FFF70AFB0220FFF707FB0720FFF704FB0A20FFF701FB28207D
:2040A000FFF7FEFA3120FFF7FBFA5420FFF7F8FA4720FFF7F5FA0E20FFF7F2FA1C20FFF7EC
:2040C000EFFA1720FFF7ECFA1B20FFF7E9FA1E20FFF7E6FA2A20FFF7E5FA0020FFF7E0FAAD
:2040E0000020FFF7DDFA0120FFF7DAFA3F20FFF7D7FA2B20FFF7D6FA0020FFF7D1FA0020B0
:20410000FFF7CEFA0020FFF7CBFAEF20FFF7C8FA2920FFF7C7FA6420FFF704F90020DFF8D1
:2041200098120860BDE8024006E00000FEFF0160303802403838024001B582B0002000904E
:204140002B48008849F2884188420CBF4FF416304FF49630019000210020FFF743FBFFF73D
:20416000A7FA002005E0BDF80800204908800098401C0090009801998842F4D303B000BD34
:204180000FB583B00020ADF80400BDF81400BDF80C10401A401CADF80400BDF8100010E0B1
:2041A000089812490880BDF80200401CADF80200BDF80200BDF804108842F1D3BDF80000FF
:2041C000401CADF80000BDF81800BDF80010884209D3BDF80010BDF80C00FFF705FBFFF734
:2041E00067FA0020E2E707B000BD000000000260E2A50020000C0240001002400FB583B061
:20420000BDF81000ADF804009DF818009DF8181001F00702511E8941C943C90F01EBD000F3
:204220009DF81810490810FB01F08DF806009DF814008DF80100002002E09DF80000401CC7
:204240008DF800009DF800009DF80610884280F0AE809DF81800182840F0A9809DF8010055
:2042600020285BD09DF801002E2808BF534856D09DF80100252808BF514850D09DF801005E
:204280005F2808BF4F484AD09DF80100422808BF4D4844D09DF80100452808BF4B483ED044
:2042A0009DF80100462808BF494838D09DF80100502808BF474832D09DF80100552808BF5A
:2042C00045482CD09DF80100302811DB9DF801003A280DDA9DF80100404900EBC00201EBE4
:2042E00082009DF800100818A0F5D860007819E09DF80100612811DB9DF801007B280DDA0E
:204300009DF80100364900EBC00201EB82009DF800100818A0F6A450007803E031489DF8B5
:204320000010085C8DF80200002002E09DF80300401C8DF803009DF803000828BFF67DAF5B
:204340009DF80200000648BF274802D4089838B926480288BDF81010BDF80C00FFF78EFAD7
:204360009DF8020040008DF80200BDF81000401CADF81000BDF81000B0F5A07F17DABDF8DA
:204380001000BDF80410401A9DF818108842CDD1BDF80400ADF81000BDF80C00401CADF895
:2043A0000C00BDF80C00B0F5F07FFFF646AF07B000BD0000EDA50020B482414234050020FA
:2043C00010050020580500207C050020C4050020A00500200C060020E8050020A8030020D2
:2043E0000000002024A40020E4A500206C0600201FB582B0BDF808008DF80400BDF8080071
:20440000BDF810104018ADF81000BDF80C00BDF814104018ADF81400099C13E0089B14F9C7
:20442000012BBDF80C1000200090D2B2BDF80800FFF7E4FE0898BDF80810400851FA80F046
:20444000ADF8080094F900007F281AD094F90000202816DBBDF80800BDF8101088420AD392
:204460009DF80400ADF808000898BDF80C1051FA80F0ADF80C00BDF80C00BDF814108842B5
:20448000CCD306B010BD0000704770B4CB0800EB8303CC0800EB8404246A0F2501F00706D4
:2044A000B600B540AC431C62CB0800EB8303CC0800EB8400006A01F00701890002FA01F183
:2044C0000843186270BC7047416882681143C2681143026911434269114382691143C269A7
:2044E0001143026A1143426A1143826A1143C26A1143026B114302689200A2F1C042116025
:20450000816808290BD101688900A1F1C041096841F0400102689200A2F1C0421160416B8F
:204520000968426B526841EA0211426B926841EA0221426BD26841EA0241426B126941EAC8
:204540000251426B526941EA0261426B9269114302689200A2F1C0425160C16AB1F5804F34
:2045600015D1816B0968826B526841EA0211826B926841EA0221826B126941EA0251826B0B
:20458000526941EA0261826B9269114301E06FF07041DFF83420006842F82010704731B10F
:2045A0008100A1F1C041096841F0010106E08100A1F1C0410968DFF8142011408000A0F16B
:2045C000C040016070470000040100A0FEFF0F0000B583B000200090DFF81C080088FFF701
:2045E000ABFDDFF81808008849F2884188421FBFDFF80808008845F26171884214D1DFF8EA
:2046000000080190182000901823C8226E211046FFF7EEFEDFF8EC070190182000900346E1
:20462000C8228721B42013E0DFF8D4070190182000901823C82264216E20FFF7D9FEDFF83A
:20464000C4070190182000900346C8227D216420FFF7CEFE002005E00098000400F038FC5A
:204660000098401C009000986028F5D30120DFF89817087003B000BD00B583B000200090A7
:20468000DFF874070088FFF757FDDFF87007008849F2884188421FBFDFF86007008845F277
:2046A0006171884214D1DFF858070190182000901823C8226E211046FFF79AFEDFF84C0728
:2046C0000190182000900346C8228721B42013E0DFF82C070190182000901823C8226421D2
:2046E0006E20FFF785FEDFF824070190182000900346C8227D216420FFF77AFE002007E08E
:204700000098000400F5C00000F0E2FB0098401C009000981F28F3D303B000BD00000000E2
:2047200070B58AB007A8002100220B460EC002A8DFF8DC167CC97CC0DFF8D806DFF8D8169B
:2047400088614FF48070C861DFF8D0060168DFF8D006FDF72CFA002836D1FFF78DFF0FE097
:20476000182000901823C82296218C20FFF740FE4FF47A70FEF7D6FDDFF8A806FDF705FA48
:20478000DFF89416DFF89806FDF771FADFF89816087091F9000020B9DFF87C0690F9090079
:2047A000A0B907A9DFF87806FDF701FA60B9DFF87C060068FDF78AFADFF870060168DFF8CD
:2047C0005C060068FDF7E3FA0AB070BDDFF8480690F909002E28D3D0DFF83C06806990F91C
:2047E000000000281EBFDFF83006806900280EBFDFF83C06DFF820068069DFF8381608603D
:20480000DFF83416DFF82C06006800F00BFD20B9DFF80406007AC006B2D5DFF82016DFF8A9
:204820001406006800F0FEFC00B10120DFF8101608700020DFF80C160870DFF8E00501680F
:20484000DFF8000600F0F0FC7DA100F00FFDDFF8E4050168DFF8EC0500F008FD0146012235
:20486000DFF8C005FCF774FF002889D1DFF888050088FFF761FCDFF88405008849F2884189
:204880008842DFF8BC05007818D1002814BFDFF8B805DFF8B8050190182000901823C822B4
:2048A0006E21D220FFF7A4FDDFF8A4050190182000900346C8228721104617E0002814BFE4
:2048C000DFF88405DFF884050190182000901823C82264216E20FFF78BFDDFF87405019028
:2048E000182000900346C8227D216E20FFF780FDDFF84C050078012809D104224FF4C00151
:20490000DFF8500500F02DFBDFF84C4501E0DFF8E4440020DFF844150860DFF840050068CF
:204920000419DFF838354FF48062DFF83415DFF8F404FCF7EBFFDFF82405026892B2214610
:20494000DFF81C0500F00DFBDFF8F404007801280CBFDFF81005DFF81005001900EE100A33
:20496000B8EE400ADFF8BC04D0ED830AF8EE600A80EE200ADFED330A20EE200ABDEEC00AC8
:2049800010EE100A80B2642826DB63200A2190FBF1F130318DF808100A2190FBF1F101EBA3
:2049A0008102A0EB420030308DF8090025208DF80A0000208DF80B00DFF84004008849F257
:2049C0008841884202A8019019D1182000901823C822A021E62018E00A28D7DA0A2190FBDA
:2049E000F1F101EB8102A0EB420030308DF8080025208DF8090000208DF80A00DCE718202F
:204A000000901823C82296218C20FFF7F1FCDFF84C040068B0F5806FBFF47FAFDFF8DC03E1
:204A2000008849F288418842DFF8400401907FF497AE182000901823C822A021E62095E68D
:204A40002F0000000000C84210B586B002A8002100220B460EC0DFF81804DFF8BC13886194
:204A60004FF48070C861DFF80C040168DFF8B003FDF79DF800285CD1FFF7AAFD31E0DFF89D
:204A8000A403D0F80C02DFF8F01308604FF40042FF21DFF8E80300F013FEDFF8E043DFF81E
:204AA000BC334FF480622146DFF87803FCF72EFFDFF8CC13087004F58064DFF8A00300681C
:204AC000B0F5806FEBD2DFF8B423DFF8AC030168DFF86003006800F0F3FADFF84803FDF753
:204AE00054F8DFF83413DFF83803FDF7C0F8DFF83813087091F9000020B9DFF81C0390F912
:204B00000900D8B9DFF81803FDF7A1F802A9DFF81003FDF74CF860B9DFF868030068FDF7F8
:204B2000D5F8DFF860030168DFF848030068FDF72EF9BB48FDF78BF806B010BDB64890F9DC
:204B400009002E28CDD0B448806990F9000000281EBFB148806900280EBFB548AE48806933
:204B6000B4490860B449B348006800F05BFB18B9A948007AC006B4D5C349AE48006800F045
:204B800051FB08B101200EE0C049AA48006800F049FB08B1022006E0BD49A648006800F05D
:204BA00041FB00B10320BB4908700020A5490870B0480168A34800F037FB4AA100F056FB49
:204BC0009C4801689F4800F051FB014601229548FCF7BEFD002884D187480088FFF7ACFA00
:204BE0008648008849F2884188421FBF8348008845F26171884213D18E48006801901820A2
:204C000000901823C8226421AA20FFF7F1FB90480190182000900346C8228221B42012E0E1
:204C2000844800680190182000901823C8225A210846FFF7DDFB86480190182000900346BB
:204C4000C82278215A20FFF7D3FB92480078012815D1824B4FF4806288497248FCF756FE6E
:204C6000874908707D48026884497248006800F09BFA7A480068B0F5806FEAD22DE78548EE
:204C80000078022815D1754B4FF480627B496548FCF73CFE7A49087070480268774965483F
:204CA000006800F097FA6D480068B0F5806FEAD213E77848007803287FF4E1AE674B4FF44A
:204CC00080626E495748FCF721FE6D490870634801686A4800F053FA60480068B0F5806FB5
:204CE000ECD2FAE62F00000080B5FFF7ADFEBDE8014015E51CB5002403226748016849486E
:204D0000FCF726FD40BB65480190182000901823C8228C21BE20FFF76BFB4FF480616048A4
:204D2000FFF7B2FB4D4B4FF4004254493D48FCF7EDFD4A48026892B204F540514F4800F063
:204D400010F946480068041944480068B0F5004FE8D23448FCF719FF0024032251480168C3
:204D60003048FCF7F5FC002843D14F480190182000901823C8228C21BE20FFF739FB374B4F
:204D80004FF400423D492748FCF7C0FD3348026892B204F5C001394800F0E3F82F480068DB
:204DA00004192E480068B0F5004FE8D21D48FCF7ECFE3E48007801281BD14E203C4908708A
:204DC000412048704E2088704F20C8704FF4FE0000F07EF804223749354800F0C2F8012018
:204DE000354908604FF4FA70FEF79CFA00203249086013BD00D062006C060020E2A5002057
:204E000054770008B8760008F1A50020C876000880760008209F002050A500205406002021
:204E2000F89C0020CC9A0020EBA500205006002059A50020C4A50020C8770008D0770008D5
:204E4000EFA5002020A10020607700086C77000878770008D89C002000106000C8A500206B
:204E60007092002000F09FFF00309DFFD877000820A0002058060020CCA5002070060020DA
:204E8000F2A500205C060020E07700088477000890770008F0A5002060060020D8760008D7
:204EA0000004024064060020E8760008EEA50020C0A50020E0FF7F009402414210B50446FE
:204EC00000F0E5F80020DFF83C130860202008E010B5044600F0DBF80020DFF828130860C3
:204EE000D82000F0B9F82002000E00F0B5F82004000E00F0B1F8E0B200F0AEF80120DFF861
:204F000004130860BDE81040CAE070B504460D46164600F0BCF80020DFF8E8120860022036
:204F200000F09AF82802000E00F096F82804000E00F092F8E8B200F08FF8B6F5807F06DDE7
:204F40004FF48076761E14F8010B00F085F8B6B2002EF7D10120DFF8AC120860BDE870402E
:204F60009EE02DE9F843804689465FFA89F04442E4B2150AD7B270B9002D35D04FF48072A7
:204F800049464046FFF7C1FF09F5807908F580786D1EF3D126E065B9BC4225DA22464046FC
:204FA000FFF7B3FF3A1BD2B204EB090104EB08001BE0161BF7B222464046FFF7A6FFA1443D
:204FC000A044B6B2300A0CD0360A4FF4807249464046FFF79AFF09F5807908F58078761ED6
:204FE000F3D12FB13A4649464046BDE8F8438CE7BDE8F18370B504460D4616460020DFF8F7
:2050000004120860032000F027F82802000E00F023F82804000E00F01FF8E8B200F01CF8BE
:20502000212E08DA9EB1A52000F016F804F8010B761EF8D10BE032462146DFF8CC0100F06A
:2050400086FBDFF8C80190F935000228F9D00120DFF8B011086070BD10B504460221DFF827
:20506000B00100F0DEFD0028F8D02146DFF8A00100F0D5FD0121DFF8980100F0D2FD0028AA
:20508000F8D0DFF88C0100F0C7FDC0B210BD80B50020DFF8701108600620FFF7DDFF0BE0F9
:2050A00080B50020574908600520FFF7D5FFA520FFF7D2FFC007FAD401205249086001BDA1
:2050C0002DE9FC4180460C46164600208DF800000027054601224FF4004100A8FFF78AFF24
:2050E0009DF80000FF2808BF8DF80070A2B29DF80000C00300F5801101F58F213046FFF7F4
:2051000030FF00260CE0012205F540510DF10100FFF770FF6D1C9DF801000028F3D1761C9F
:205120009DF800008642EED3404600E07F1C10F8011B0029FAD17A1C92B205F5405140464D
:20514000FFF70FFF019404229DF80000800000F5E04101A8FFF705FF9DF80000401C8DF84C
:2051600000004FF40040FFF7A9FE01224FF40041FFE700A8FFF7F5FE0120BDE8F68110B5EF
:205180000C46A2B22349096801F5002101F58B21FFF7E7FE1F48006820181F49884228BFD8
:2051A00000201C49086010BD10B50846140001D1002010BD92B21949096801F51041FFF7FB
:2051C000D0FE164800682018B0F5962F28BF0020124914E010B50846140001D1002010BD5D
:2051E00092B20F49096801F57021FFF7BAFE0C4800682018B0F5163F28BF002008490860BF
:20520000012010BDB0824042A0A40020A4A2002000380040D0A5002080380100D4A50020C3
:20522000D8A5002000F004BD5FEA000C830706D011F8013B00F8013BB3B18307F8D10A68C9
:20524000B2F1013323EA020313F0803F02BF40F8042B51F8042FF3E711F8013B00F8013BAC
:2052600013B111F8013BF9E760467047024600E0521C1378002BFBD111F8013B137012F8FE
:20528000013B002BF8D1704780B5002000900022DFF8BC13DFF8BC03FCF716FA0322DFF8E5
:2052A000B8030168DFF8B403FCF752FAE8B9DFF8AC03D0F80C02DFF8A813086000F062F8BC
:2052C000DFF89803FCF761FCDFF898030068FCF7FDFCDFF890030168DFF87C030068FCF7C2
:2052E00056FDDFF8840302680CE0DFF880030068DFF87C130860DFF87C030068DFF8681307
:2053000008600A68DFF868030168DFF86003BDE808406EE170B588B002A8DFF85C137CC900
:205320007CC000F09BFC00240020FEF705FF04F132008DF81500DFF84403008849F2884102
:20534000884202A8019007D11820009018234FF496729621A02005E0182000901823C822D9
:2053600064215020FFF744F80221A01C00F0A2FC641C062CD8DB4FF4FA70FDF7D3FF08B009
:2053800070BD000000B583B0FFF7C4FF0020FEF7D3FEBA48008849F288418842B848019070
:2053A00010D1182000901823A5226E21C820FFF71FF8B4480190182000900346F022AF213E
:2053C000EB200FE0182000901823C82250216E20FFF70EF8AB480190182000900346C8226C
:2053E0008C210846FFF704F8A048A74908600020A6490860A64908704FF48062FF21A54870
:2054000000F05EF9A44B4FF48062A2499348FCF77DFAA249087096480068934909680843C0
:2054200007D19C480068924908609A4840688E49086098489A4908604FF400720968924811
:20544000006800F06FFC9048006800F580608E4908608E480068401C8C49086091480088FD
:20546000914908808548008849F2884188420CBF9FED740A9FED740A8C4880ED000A8348B2
:2054800000684FF4C831484300EE100AB8EE400A7348D0ED000AF8EE600A80EE200A8348B0
:2054A000D0ED000A20EE200ABDEEC00A10EE100A7C4908807148008849F288418842794843
:2054C00000880AD1B0F5F07F14DA4FF4FC600090AA23744802888C2109E0B0F5A07F09DAE8
:2054E0004FF4FC60009087236E4802886E210020FEF746FE65480068800200EE100AB8EE66
:20550000400ADFED520A20EE200A5548D0ED000AF8EE600A80EE200ABDEEC00A10EE100A08
:2055200080B26428A8BF63205E49088008880A2808880EDA0A2190FBF1F101EB8102A0EBC8
:20554000420030304F490870252048700020887015E00A2190FBF1F030304A4908705148F4
:2055600000880A2190FBF1F101EB8102A0EB4200303044494870252088700020C8703F480E
:20558000008849F2884188423E48019006D1182000901823C822AF21EB2005E01820009052
:2055A0001823C8228C210846FEF722FF3A480068B0F5806FBFF420AF3048008849F28841B1
:2055C00088423B48019006D1182000901823C822AF21EB2005E0182000901823C8228C21CF
:2055E0000846FEF705FF642003B05DF804EBFDF799BE70B504460D4616462E48007810B9C9
:20560000FFF772FB01E0FFF775FB012241F24E012948FFF7A6FC00F02CFB284800684008FB
:20562000400026490860B4F1006F8CBF4FF000604FF00050211A00F0E1FB85F30888B047C0
:2056400070BD00009A999940CDCC4C400000C842A0A500207096002044060020A098002095
:20566000B4A5002048060020A8A5002000800008A4A500200480000844760008E2A50020F0
:205680003077000830060020ACA50020B8A50020ECA50020708E0020B0A50020EBA5002023
:2056A0004C060020E8A50020E6A50020BCA50020B0770008EEA50020EDA5002010E000E03B
:2056C000130003D00A461946FCF70EBC7047000010B5040001D1012010BD0020A06294F989
:2056E000510020B984F85000204600F0B4FB022084F851002068006820F04000216808608F
:205700006068A1680843E16808432169084361690843A16901F400710843E1690843216A14
:205720000843A16A084321680860A069000C00F00400616A0843216848602068C06920F4C2
:2057400000602168C8610020606500F0F1B838B504460025A068002804BF6068B0F5827FFC
:2057600009D1042084F8510013460A46204601B0BDE8304059E094F95000012801D1022056
:2057800032BD012084F8500094F95100012818BF022545D1002914BF002A012540D0042092
:2057A00084F851006565A163A287E28725646564A586E586A068B0F5004F05D12068006812
:2057C00020F48040216808600FF23130E16C08640FF28120E16CC8630FF23930E16CC864EC
:2057E000E16C0D65E38FA26B206800F10C01E06C00F06FFC20680068400605D4206800683F
:2058000040F04000216808602068406840F02000216848602068406840F0010021684860E4
:20582000002084F85000284632BD70B50446002594F95000012801D1022070BD012084F8C7
:20584000500094F95100012809D06668B6F5827F02BFA668002E042801D0022563E0002911
:2058600018BF002A00D00BB901255CE094F95100012804BF052084F8510065652163A386FE
:20588000E386A263A387E3872564656494F95100042806D10FF26520E16C08640FF2B510CE
:2058A00005E00FF26520E16C08640FF2FD10E16CC8630FF26120E16CC864E16C0D65E38F12
:2058C000A26B206800F10C01E06C00F002FC2068406840F0010021684860A16C0D64A16CDE
:2058E000CD63A16CCD64A16C0D65E38E206800F10C02216BA06C00F0ECFB2068006840061E
:2059000005D42068006840F04000216808602068406840F02000216848602068406840F04C
:20592000020021684860002084F85000284670BD012084F85100002010BD10B582B0044691
:20594000206840682168896801F04102012A06D1420604D52046216CBDE81C4008478A0772
:2059600006D5020604D52046616CBDE81C40084711F4B07F67D0820665D54A0610D594F9F9
:205980005120032A52D0626D42F004026265002200922268D2680092226892680092009ABF
:2059A0008A060FD5626D42F001026265002200922268926800922268126822F040022368FB
:2059C0001A60009AC90509D5616D41F008016165002100912168896800910099616D91B3D1
:2059E0002168496821F0E00122685160012184F8511010F0030F23D0206840688008800004
:205A000021684860E06C30B10FF23110E16C0865E06C00F09AFBA06CA8B10FF22110A16CB7
:205A20000865A06CBDE8164000F08FBB002000902068C0680090206880680090009813BD60
:205A4000204600F005F813BD70477047704770477047000080B50146886B09680968C90571
:205A60001ED40168496889088900026851604168B1F5827F0CD18168B1F5004F18BFB1F55D
:205A8000806F05D10168096821F04001026811600021C187012180F85110416D01B149E04D
:205AA000FFF7D2FF01BD000038B50546AC6BFDF736FC29680968C90518D4024664212046FD
:205AC00000F08FF818B1606D40F0200060652068406880088000216848600020E086E0874E
:205AE000012084F85100606D00B103E02046FFF7ACFF31BD2046FFF7ABFF31BD80B5806B4E
:205B0000FFF7A4FF01BD000080B5806BFFF79FFF01BD000080B5806B016849688908890068
:205B200002685160416D41F0100141655FF0010180F85110FFF78CFF01BD000080B5806B2B
:205B40000021C187C186F5E72DE9F04104460D4690461F46069E206880682840A8420CBF69
:205B600001200020404539D017F1010FF3D027B1FDF7D5FB801BB842EDD32068406820F04A
:205B8000E000216848606068B0F5827F0CD1A068B0F5004F18BFB0F5806F05D1206800687C
:205BA00020F0400021680860A06AB0F5005F0CD1206800684DF6FF71084021680860206855
:205BC000006840F4005021680860012084F85100002084F850000320BDE8F0810020BDE810
:205BE000F08110B582B0044600920B4600228021FFF7AAFF20B1606D40F0200060650320D8
:205C000016BD00000029016812BF41F040014FF6BF72114001607047C06880B27047C160CB
:205C2000704700228068084218BF01221046704770B50C46257835B970BD11F8013F16784C
:205C4000B34206D0401C294600F0D8FB28B10146224612F8013F002BEFD170BD1148006840
:205C6000002804D5104811490860114806E0012070470C48006840F000400A4908600020EB
:205C80007047084A126822F44072064B1A601A6842F480721A601A6842F001021A60018018
:205CA00070470000103C024023016745043C0240AB89EFCD002251B1012908BF4FF4807213
:205CC00005D002290CBF4FF400724FF440720C49096821F440710A4B1960196811431960A7
:205CE000196821F0F80119601968C00040F0020008431860186840F48030186070470000D7
:205D0000103C02400088704770B504460D46160007D035F8021B2046FFF7B3FFA41C761E5B
:205D2000F7D170BD2DE9F843804689461646A8F10060B0F5002F01D3BDE8F183C70AC0F3EE
:205D40004905C5F58064A4B2B44203DB344601E04FF480644FF480622049F80200F10060D2
:205D600000F03EF800201D4901EB45014FF6FF7301E0401C80B2A04203DA31F8022B9A422E
:205D8000F7D0A04213DA012C0ADB144800EB45004946224631F8023B20F8023B521EF9D1E3
:205DA0004FF480620D49F80200F1006002E0224649464046FFF7A8FFA64204BFBDE8F1439D
:205DC000FFF757BF7F1C002509EB4409A044361BB6B2B6F5806FBBDCB8E700007086002033
:205DE00070B504460D46160007D02046FFF78AFF25F8020BA41C761EF7D170BD024A1140FF
:205E0000084302490860704780FFFF1F08ED00E080B57048704908604FF482704860002050
:205E20008860C86002200861012048614FF4007088611020C86100200862486288620A20C0
:205E4000C8620846FFF744FC00281CBFBDE8014000F0DABB01BD10B586B0044620685C49F6
:205E6000884258D1002000905C48006840F480505A490860086800F4805000900098E02008
:205E800001900220029000200390032004900520059001A95248FDF757FA52485249086073
:205EA0004FF0C060486000208860C8604FF480600861002048618861C861086248620846E2
:205EC00000F0A4F808B100F09FFB4748E06484634648474908604FF0C06048604020886064
:205EE0000020C8604FF480600861002048618861C86108624862084600F088F808B100F078
:205F000083FB3B48A0648463002203212320FDF764FB232057E02F49884256D10020009026
:205F20003448006840F4804032490860086800F48040009000984FF4604001900220029032
:205F40000020039004900520059001A92A48FDF7FBF92A482A490860002048608860C86017
:205F60004FF480600861002048618861C86108624862084600F04AF808B100F045FB2048D5
:205F8000E06484631F482049086000204860402088600020C8604FF48060086100204861F1
:205FA0008861C86108624862084600F02FF808B100F02AFB1448A0648463002203212420B7
:205FC000FDF70BFB2420FDF717FB06B010BD00000030014000380040F8A400204438024097
:205FE0000000024040640240A4A200208864024004A3002040380240000402405860024024
:2060000064A3002070600240C4A3002038B50446FDF785F905460CB9012032BD002084F85B
:206020003400022084F8350020680068400840002168086020680068C00708D5FDF76FF900
:20604000401B0628F6D32020606503202EE020680068DFF84413084061680843A1680843EA
:20606000E16808432169084361690843A1690843E1690843216A0843616A042903D1E16ACB
:20608000226B114308432168086020684069C008616A41EAC00504290BD1A06A054320466E
:2060A00000F084F928B140206065012084F8350032BD20684561204600F05AF93F21E26D2E
:2060C0009140816000206065012084F83500002032BD70B504460025A66D94F934000128B7
:2060E00001D1022070BD012084F8340094F93500012825D1022084F835006565204600F0DA
:2061000020F93F20E16D8840B0602068006840F01600216808602068406940F08000216850
:206120004861206C28B12068006840F00800216808602068006840F001002168086002E044
:2061400084F834500225284670BD90F93510022903D08021416501207047052180F83510AF
:2061600001680968490849000068016000207047F8B50446002000908A4800684FF4165180
:20618000B0FBF1F5A66D37680820E16D8840074211D02068006840070DD52068006820F03B
:2061A0000400216808600820E16D8840B060606D40F0010060657948E16D884007420AD0DF
:2061C00020684069000606D574488840B060606D40F0020060657248E16D884007420AD062
:2061E00020680068800706D56D488840B060606D40F0040060651020E16D8840074221D07A
:206200002068006800071DD510208840B0602068006840032068006807D500030DD5A06C9D
:2062200080B12046A16C88470CE0C00505D42068006820F0080021680860206C10B12046B5
:20624000216C88472020E16D8840074253D020680068C0064FD520208840B06094F935006C
:2062600005282068006827D120F01600216808602068406920F0800021684861206C00284B
:2062800004BFA06C002805D02068006820F00800216808603F20E16D8840B060002084F818
:2062A0003400012084F83500206D002847D02046216DBDE8F440084740032068006807D5E1
:2062C000000313D4606CB0B12046616C884712E0C0050BD42068006820F01000216808600E
:2062E000002084F83400012084F83500E06B10B12046E16B8847606D08B3606DC00717D567
:20630000052084F835002068006840084000216808600098401C0090854203D3206800682D
:20632000C007F6D4002084F83400012084F83500E06C20B12046E16CBDE8F4400847F1BD84
:20634000000030B40468246824F4802405682C60046863608368402B036804D19A60006885
:20636000C16030BC704799600068C26030BC7047017810391822B1FBF2F10B4A8A5CC26546
:206380000429016803D3890A8902091D01E0890A89028165084670473F8010F00100800023
:2063A0000400800068060020E8770008014600208A6A8B694BB9002A18BF022A18D01BD20F
:2063C000C96AB1F1C07F17D115E0B3F5005F0BD1002A18BF022A0ED00AD3032A04BFC96ADE
:2063E000B1F1C07F08D106E0022A04D9D21E03D1C96AC90100D50120704700000278C9B291
:206400008A421AB11CBF10F8012FF9E718BF00207047000000B583B0FCF750FF00F082F8B0
:2064200000214FF00060FFF7E9FC00F0EFF800F06BF9FBF703FEFCF76FFEFFF7E9FC012146
:206440006448FFF7DFFB1420FCF76CFF042262496248FEF7CFFD614800784E2802BF5F48F3
:206460004078412807D15D4880784E2802BF5B48C0784F280FD059480078FF281EBF574862
:206480004078FF2809D055488078FF281EBF5348C078FF2801D0002000E0012050490870AE
:2064A000012241F24E014F48FEF7A4FDFDF7E9FA0020FDF741FE4FF4FC604B490880002005
:2064C0004A4908801420FCF72DFF4948008849F2884188424748019006D11820009018236D
:2064E000C8228C21BE2005E0182000901823C82264216E20FDF77CFF3948007810B90120F0
:206500003D490860C820FCF70DFF01203B4908604FF49670FCF706FF002037490860FEF75B
:20652000B3FEFEE700B593B0002000903448006840F0805032490860086800F08050009096
:20654000002000902F48006840F480402D490860086800F4804000900920069001200790AF
:206560000B9002200C904FF480000D9004200E90A8200F90022010900720119006A800F011
:2065800001F908B100F040F80F20019002200290002003904FF4A05004904FF4805005908A
:2065A000052101A800F04DFA08B100F02DF800F028FB4FF47A71B0FBF1F0FDF71EF804200C
:2065C000FDF71CF8002200214FF0FF30FDF705F813B000BD00380040E0FF7F00C0A5002036
:2065E000EEA50020EDA50020E4A500206C060020E2A500202477000894024142B4824142DF
:206600004038024000700040FEE7000000B587B0002000903448006840F001003249086097
:20662000086800F001000090009800200090086840F002000860086800F00200009000988D
:2066400000200090086840F004000860086800F004000090009800200090086840F008009A
:206660000860086800F0080000900098282001900120029000200390049001A91B48FCF74F
:2066800063FE4FF40050019001A91948FCF75CFE41F20400019001A91648FCF755FE0220E5
:2066A000019001A91448FCF74FFE4FF4805001900020029001A90E48FCF746FE4FF4001023
:2066C0000E4908604FF480500D4908604FF400200A49086004200A4908604FF40030094968
:2066E000086007B000BD00BF3038024000080240000C0240000402400000024018080240D3
:20670000180402401800024080B5002000901C48006840F400101A490860086800F400108D
:206720000090009800200090086840F480000860086800F4800000900098002204210E2074
:20674000FCF74BFF0E20FCF757FF002204210F20FCF743FF0F20FCF74FFF002204213B20C8
:20676000FCF73BFF3B20FCF747FF002204214520FCF733FF4520BDE80240FCF73DBF00BF8D
:206780003038024038B504462078C0073DD5DFF87804006800F00C0004280BD0DFF86804A6
:2067A000006800F00C0008280DD1DFF860040068400208D5DFF858040068800325D56068C5
:2067C00018BB012032BD6068DFF848140870606868B1FCF7A4FD0546DFF8340400688003A9
:2067E00013D4FCF79CFD401B6528F5D325E1FCF796FD0546DFF818040068800305D5FCF7F4
:206800008EFD401B6528F5D317E12078800724D5DFF8F403006810F00C0F0BD0DFF8E8033F
:20682000006800F00C0008282ED1DFF8E0030068400229D4DFF8D8030068800702D5E068A4
:206840000128BED1DFF8C803006820F0F800216940EAC100DFF8B81308602078000749D532
:206860006069B0B30120DFF8B0130860FCF757FD0546DFF8A803006880073BD4FCF74FFD78
:20688000401B0328F5D3D8E0E06888B10120DFF890130860FCF743FD0546DFF8740300683A
:2068A0008007CFD4FCF73BFD401B0328F5D3C4E0DFF86C130860FCF732FD0546DFF850033C
:2068C00000688007C9D5FCF72AFD401B0328F5D3B3E0DFF844130860FCF721FD0546DFF867
:2068E0003C030068800705D5FCF719FD401B0328F5D3A2E0207840074AD500200090DFF832
:206900002403006840F08050DFF818130860086800F0805000900098DFF80C03006840F4A4
